{
  "contractName": "GizerItems",
  "abi": [
    {
      "constant": true,
      "inputs": [],
      "name": "name",
      "outputs": [
        {
          "name": "",
          "type": "string"
        }
      ],
      "payable": false,
      "stateMutability": "pure",
      "type": "function"
    },
    {
      "constant": false,
      "inputs": [
        {
          "name": "_approved",
          "type": "address"
        },
        {
          "name": "_id",
          "type": "uint256"
        }
      ],
      "name": "approve",
      "outputs": [],
      "payable": false,
      "stateMutability": "nonpayable",
      "type": "function"
    },
    {
      "constant": true,
      "inputs": [],
      "name": "ownerCount",
      "outputs": [
        {
          "name": "",
          "type": "uint256"
        }
      ],
      "payable": false,
      "stateMutability": "view",
      "type": "function"
    },
    {
      "constant": true,
      "inputs": [
        {
          "name": "_index",
          "type": "uint256"
        }
      ],
      "name": "deedByIndex",
      "outputs": [
        {
          "name": "id",
          "type": "uint256"
        }
      ],
      "payable": false,
      "stateMutability": "view",
      "type": "function"
    },
    {
      "constant": false,
      "inputs": [
        {
          "name": "_a",
          "type": "address"
        }
      ],
      "name": "removeAdmin",
      "outputs": [],
      "payable": false,
      "stateMutability": "nonpayable",
      "type": "function"
    },
    {
      "constant": true,
      "inputs": [],
      "name": "totalSupply",
      "outputs": [
        {
          "name": "count",
          "type": "uint256"
        }
      ],
      "payable": false,
      "stateMutability": "view",
      "type": "function"
    },
    {
      "constant": false,
      "inputs": [
        {
          "name": "_from",
          "type": "address"
        },
        {
          "name": "_to",
          "type": "address"
        },
        {
          "name": "_id",
          "type": "uint256"
        }
      ],
      "name": "transferFrom",
      "outputs": [],
      "payable": false,
      "stateMutability": "nonpayable",
      "type": "function"
    },
    {
      "constant": true,
      "inputs": [
        {
          "name": "",
          "type": "address"
        }
      ],
      "name": "isAdmin",
      "outputs": [
        {
          "name": "",
          "type": "bool"
        }
      ],
      "payable": false,
      "stateMutability": "view",
      "type": "function"
    },
    {
      "constant": true,
      "inputs": [
        {
          "name": "",
          "type": "address"
        }
      ],
      "name": "balances",
      "outputs": [
        {
          "name": "",
          "type": "uint256"
        }
      ],
      "payable": false,
      "stateMutability": "view",
      "type": "function"
    },
    {
      "constant": true,
      "inputs": [
        {
          "name": "_id",
          "type": "uint256"
        }
      ],
      "name": "getUuid",
      "outputs": [
        {
          "name": "",
          "type": "string"
        }
      ],
      "payable": false,
      "stateMutability": "view",
      "type": "function"
    },
    {
      "constant": true,
      "inputs": [
        {
          "name": "",
          "type": "uint256"
        }
      ],
      "name": "code",
      "outputs": [
        {
          "name": "",
          "type": "bytes32"
        }
      ],
      "payable": false,
      "stateMutability": "view",
      "type": "function"
    },
    {
      "constant": true,
      "inputs": [],
      "name": "deedCount",
      "outputs": [
        {
          "name": "",
          "type": "uint256"
        }
      ],
      "payable": false,
      "stateMutability": "view",
      "type": "function"
    },
    {
      "constant": false,
      "inputs": [
        {
          "name": "_code",
          "type": "string"
        }
      ],
      "name": "removeCode",
      "outputs": [
        {
          "name": "success",
          "type": "bool"
        }
      ],
      "payable": false,
      "stateMutability": "nonpayable",
      "type": "function"
    },
    {
      "constant": true,
      "inputs": [
        {
          "name": "_id",
          "type": "uint256"
        }
      ],
      "name": "ownerOf",
      "outputs": [
        {
          "name": "owner",
          "type": "address"
        }
      ],
      "payable": false,
      "stateMutability": "view",
      "type": "function"
    },
    {
      "constant": false,
      "inputs": [
        {
          "name": "_to",
          "type": "address"
        }
      ],
      "name": "mint",
      "outputs": [
        {
          "name": "idx",
          "type": "uint256"
        }
      ],
      "payable": false,
      "stateMutability": "nonpayable",
      "type": "function"
    },
    {
      "constant": false,
      "inputs": [
        {
          "name": "_a",
          "type": "address"
        }
      ],
      "name": "addAdmin",
      "outputs": [],
      "payable": false,
      "stateMutability": "nonpayable",
      "type": "function"
    },
    {
      "constant": true,
      "inputs": [
        {
          "name": "_owner",
          "type": "address"
        }
      ],
      "name": "balanceOf",
      "outputs": [
        {
          "name": "balance",
          "type": "uint256"
        }
      ],
      "payable": false,
      "stateMutability": "view",
      "type": "function"
    },
    {
      "constant": true,
      "inputs": [
        {
          "name": "",
          "type": "uint256"
        }
      ],
      "name": "mIdApproved",
      "outputs": [
        {
          "name": "",
          "type": "address"
        }
      ],
      "payable": false,
      "stateMutability": "view",
      "type": "function"
    },
    {
      "constant": false,
      "inputs": [],
      "name": "acceptOwnership",
      "outputs": [],
      "payable": false,
      "stateMutability": "nonpayable",
      "type": "function"
    },
    {
      "constant": true,
      "inputs": [],
      "name": "owner",
      "outputs": [
        {
          "name": "",
          "type": "address"
        }
      ],
      "payable": false,
      "stateMutability": "view",
      "type": "function"
    },
    {
      "constant": true,
      "inputs": [
        {
          "name": "x",
          "type": "bytes32"
        }
      ],
      "name": "bytes32ToString",
      "outputs": [
        {
          "name": "",
          "type": "string"
        }
      ],
      "payable": false,
      "stateMutability": "pure",
      "type": "function"
    },
    {
      "constant": true,
      "inputs": [],
      "name": "symbol",
      "outputs": [
        {
          "name": "",
          "type": "string"
        }
      ],
      "payable": false,
      "stateMutability": "pure",
      "type": "function"
    },
    {
      "constant": true,
      "inputs": [],
      "name": "lastRandom",
      "outputs": [
        {
          "name": "",
          "type": "uint256"
        }
      ],
      "payable": false,
      "stateMutability": "view",
      "type": "function"
    },
    {
      "constant": false,
      "inputs": [
        {
          "name": "_to",
          "type": "address"
        },
        {
          "name": "_id",
          "type": "uint256"
        }
      ],
      "name": "transfer",
      "outputs": [],
      "payable": false,
      "stateMutability": "nonpayable",
      "type": "function"
    },
    {
      "constant": true,
      "inputs": [],
      "name": "nonce",
      "outputs": [
        {
          "name": "",
          "type": "uint256"
        }
      ],
      "payable": false,
      "stateMutability": "view",
      "type": "function"
    },
    {
      "constant": false,
      "inputs": [
        {
          "name": "_code",
          "type": "string"
        },
        {
          "name": "_weight",
          "type": "uint256"
        }
      ],
      "name": "addCode",
      "outputs": [
        {
          "name": "success",
          "type": "bool"
        }
      ],
      "payable": false,
      "stateMutability": "nonpayable",
      "type": "function"
    },
    {
      "constant": true,
      "inputs": [
        {
          "name": "_id",
          "type": "uint256"
        }
      ],
      "name": "deedUri",
      "outputs": [
        {
          "name": "",
          "type": "string"
        }
      ],
      "payable": false,
      "stateMutability": "view",
      "type": "function"
    },
    {
      "constant": true,
      "inputs": [
        {
          "name": "",
          "type": "bytes32"
        }
      ],
      "name": "mCodeIndexPlus",
      "outputs": [
        {
          "name": "",
          "type": "uint256"
        }
      ],
      "payable": false,
      "stateMutability": "view",
      "type": "function"
    },
    {
      "constant": true,
      "inputs": [],
      "name": "countOfOwners",
      "outputs": [
        {
          "name": "count",
          "type": "uint256"
        }
      ],
      "payable": false,
      "stateMutability": "view",
      "type": "function"
    },
    {
      "constant": true,
      "inputs": [
        {
          "name": "source",
          "type": "string"
        }
      ],
      "name": "stringToBytes32",
      "outputs": [
        {
          "name": "result",
          "type": "bytes32"
        }
      ],
      "payable": false,
      "stateMutability": "pure",
      "type": "function"
    },
    {
      "constant": true,
      "inputs": [
        {
          "name": "",
          "type": "uint256"
        }
      ],
      "name": "mIdOwner",
      "outputs": [
        {
          "name": "",
          "type": "address"
        }
      ],
      "payable": false,
      "stateMutability": "view",
      "type": "function"
    },
    {
      "constant": true,
      "inputs": [],
      "name": "newOwner",
      "outputs": [
        {
          "name": "",
          "type": "address"
        }
      ],
      "payable": false,
      "stateMutability": "view",
      "type": "function"
    },
    {
      "constant": true,
      "inputs": [],
      "name": "sumOfWeights",
      "outputs": [
        {
          "name": "",
          "type": "uint256"
        }
      ],
      "payable": false,
      "stateMutability": "view",
      "type": "function"
    },
    {
      "constant": false,
      "inputs": [
        {
          "name": "tokenAddress",
          "type": "address"
        },
        {
          "name": "amount",
          "type": "uint256"
        }
      ],
      "name": "transferAnyERC20Token",
      "outputs": [
        {
          "name": "success",
          "type": "bool"
        }
      ],
      "payable": false,
      "stateMutability": "nonpayable",
      "type": "function"
    },
    {
      "constant": false,
      "inputs": [
        {
          "name": "_code",
          "type": "string"
        },
        {
          "name": "_weight",
          "type": "uint256"
        }
      ],
      "name": "updateCodeWeight",
      "outputs": [
        {
          "name": "success",
          "type": "bool"
        }
      ],
      "payable": false,
      "stateMutability": "nonpayable",
      "type": "function"
    },
    {
      "constant": false,
      "inputs": [
        {
          "name": "_newOwner",
          "type": "address"
        }
      ],
      "name": "transferOwnership",
      "outputs": [],
      "payable": false,
      "stateMutability": "nonpayable",
      "type": "function"
    },
    {
      "constant": true,
      "inputs": [
        {
          "name": "",
          "type": "uint256"
        }
      ],
      "name": "weight",
      "outputs": [
        {
          "name": "",
          "type": "uint256"
        }
      ],
      "payable": false,
      "stateMutability": "view",
      "type": "function"
    },
    {
      "inputs": [],
      "payable": false,
      "stateMutability": "nonpayable",
      "type": "constructor"
    },
    {
      "payable": true,
      "stateMutability": "payable",
      "type": "fallback"
    },
    {
      "anonymous": false,
      "inputs": [
        {
          "indexed": true,
          "name": "minter",
          "type": "address"
        },
        {
          "indexed": true,
          "name": "_owner",
          "type": "address"
        },
        {
          "indexed": true,
          "name": "_code",
          "type": "bytes32"
        },
        {
          "indexed": false,
          "name": "_input",
          "type": "uint256"
        }
      ],
      "name": "MintToken",
      "type": "event"
    },
    {
      "anonymous": false,
      "inputs": [
        {
          "indexed": true,
          "name": "_type",
          "type": "uint8"
        },
        {
          "indexed": true,
          "name": "_code",
          "type": "bytes32"
        },
        {
          "indexed": false,
          "name": "_weight",
          "type": "uint256"
        },
        {
          "indexed": false,
          "name": "_sumOfWeights",
          "type": "uint256"
        }
      ],
      "name": "CodeUpdate",
      "type": "event"
    },
    {
      "anonymous": false,
      "inputs": [
        {
          "indexed": true,
          "name": "_from",
          "type": "address"
        },
        {
          "indexed": true,
          "name": "_to",
          "type": "address"
        }
      ],
      "name": "OwnershipTransferProposed",
      "type": "event"
    },
    {
      "anonymous": false,
      "inputs": [
        {
          "indexed": true,
          "name": "_from",
          "type": "address"
        },
        {
          "indexed": true,
          "name": "_to",
          "type": "address"
        }
      ],
      "name": "OwnershipTransferred",
      "type": "event"
    },
    {
      "anonymous": false,
      "inputs": [
        {
          "indexed": true,
          "name": "_admin",
          "type": "address"
        },
        {
          "indexed": false,
          "name": "_status",
          "type": "bool"
        }
      ],
      "name": "AdminChange",
      "type": "event"
    },
    {
      "anonymous": false,
      "inputs": [
        {
          "indexed": true,
          "name": "_from",
          "type": "address"
        },
        {
          "indexed": true,
          "name": "_to",
          "type": "address"
        },
        {
          "indexed": false,
          "name": "_deedId",
          "type": "uint256"
        }
      ],
      "name": "Transfer",
      "type": "event"
    },
    {
      "anonymous": false,
      "inputs": [
        {
          "indexed": true,
          "name": "_owner",
          "type": "address"
        },
        {
          "indexed": true,
          "name": "_approved",
          "type": "address"
        },
        {
          "indexed": false,
          "name": "_deedId",
          "type": "uint256"
        }
      ],
      "name": "Approval",
      "type": "event"
    },
    {
      "anonymous": false,
      "inputs": [
        {
          "indexed": true,
          "name": "_owner",
          "type": "address"
        },
        {
          "indexed": true,
          "name": "_operator",
          "type": "address"
        },
        {
          "indexed": false,
          "name": "_approved",
          "type": "bool"
        }
      ],
      "name": "ApprovalForAll",
      "type": "event"
    }
  ],
  "bytecode": "0x6060604052600060035560006004556000600c556000600d5534156200002457600080fd5b336000806101000a81548173ffffffffffffffffffffffffffffffffffffffff021916908373ffffffffffffffffffffffffffffffffffffffff1602179055506001600260008060009054906101000a900473ffffffffffffffffffffffffffffffffffffffff1673ffffffffffffffffffffffffffffffffffffffff1673ffffffffffffffffffffffffffffffffffffffff16815260200190815260200160002060006101000a81548160ff021916908315150217905550620001346040805190810160405280602081526020017f37343134336233383432666633373365623131316431326631663439373631318152506101f4620006bb6401000000000262001fe5176401000000009004565b506200018c6040805190810160405280602081526020017f3536346234306230396138323339666262653430306539313230623835333836815250610460620006bb6401000000000262001fe5176401000000009004565b50620001e46040805190810160405280602081526020017f34353763303735376434626333343532383533663962336634386237303839398152506101f4620006bb6401000000000262001fe5176401000000009004565b506200023c6040805190810160405280602081526020017f3738356464616533363835633363353862626131353636633234356535633732815250610460620006bb6401000000000262001fe5176401000000009004565b50620002946040805190810160405280602081526020017f3238613431663337306663633362353762383534646464363532396238303238815250610460620006bb6401000000000262001fe5176401000000009004565b50620002ec6040805190810160405280602081526020017f6331653833313462313464633365633938346239343039646133323139333731815250610514620006bb6401000000000262001fe5176401000000009004565b50620003446040805190810160405280602081526020017f6561626139316538653263653335363039633066356163393932393837616638815250610514620006bb6401000000000262001fe5176401000000009004565b506200039c6040805190810160405280602081526020017f3438646465653561373165363364333161616662393961646361613534656431815250610460620006bb6401000000000262001fe5176401000000009004565b50620003f46040805190810160405280602081526020017f3433646231623235653361313365393538656237333436653666376236396235815250610514620006bb6401000000000262001fe5176401000000009004565b506200044c6040805190810160405280602081526020017f3437653435376537323164343364383561623937346130656333613133356139815250610514620006bb6401000000000262001fe5176401000000009004565b50620004a46040805190810160405280602081526020017f6565613537373665383561373365333938616534663033303934396163346234815250610514620006bb6401000000000262001fe5176401000000009004565b50620004fc6040805190810160405280602081526020017f3061313065343035373639643366643938336137306363336636613861633137815250610514620006bb6401000000000262001fe5176401000000009004565b50620005546040805190810160405280602081526020017f36656435303566343433646433663166623833346365343832666366313564328152506101f4620006bb6401000000000262001fe5176401000000009004565b50620005ac6040805190810160405280602081526020017f3866373639306262623330353366346261383534386439376366383963383532815250610190620006bb6401000000000262001fe5176401000000009004565b50620006046040805190810160405280602081526020017f3639613164633535336465383335303461616264623638353866343932336433815250610514620006bb6401000000000262001fe5176401000000009004565b506200065c6040805190810160405280602081526020017f6235316630643638313361373363636239633962643734313131386436323262815250610514620006bb6401000000000262001fe5176401000000009004565b50620006b46040805190810160405280602081526020017f3730613334656236326433323334363839626435363634336364666235313466815250610190620006bb6401000000000262001fe5176401000000009004565b506200098f565b6000806000600260003373ffffffffffffffffffffffffffffffffffffffff1673ffffffffffffffffffffffffffffffffffffffff16815260200190815260200160002060009054906101000a900460ff1615156200071957600080fd5b62000738856200087b64010000000002620021c5176401000000009004565b91506000841115156200074a57600080fd5b6000600b60008460001916600019168152602001908152602001600020541415156200077557600080fd5b600880549050905060088054806001018281620007939190620008cd565b91600052602060002090016000849091909150906000191690555060098054806001018281620007c49190620008fc565b91600052602060002090016000869091909150555060018101600b60008460001916600019168152602001908152602001600020819055506200082184600a54620008b06401000000000262002912179091906401000000009004565b600a81905550816000191660017f52b5fdb8ad051796554f4abfd519b3fc640925d4f26a660a31211dda67c4934886600a54604051808381526020018281526020019250505060405180910390a360019250505092915050565b6000620008876200092b565b829050600081511415620008a25760006001029150620008aa565b602083015191505b50919050565b60008183019050828110151515620008c757600080fd5b92915050565b815481835581811511620008f757818360005260206000209182019101620008f691906200093f565b5b505050565b815481835581811511620009265781836000526020600020918201910162000925919062000967565b5b505050565b602060405190810160405280600081525090565b6200096491905b808211156200096057600081600090555060010162000946565b5090565b90565b6200098c91905b80821115620009885760008160009055506001016200096e565b5090565b90565b612b1b806200099f6000396000f3006060604052600436106101cd576000357c0100000000000000000000000000000000000000000000000000000000900463ffffffff16806306fdde03146101d2578063095ea7b3146102605780630db02622146102a2578063139020d1146102cb5780631785f53c1461030257806318160ddd1461033b57806323b872dd1461036457806324d7806c146103c557806327e235e3146104165780632bf34e601461046357806332e2fa42146104ff57806341163f7c1461053e57806357b45386146105675780636352211e146105dc5780636a6278421461063f578063704802751461068c57806370a08231146106c55780637428a1411461071257806379ba5097146107755780638da5cb5b1461078a5780639201de55146107df57806395d89b411461087f578063a856b9c21461090d578063a9059cbb14610936578063affed0e014610978578063b84c35b3146109a1578063b95d2a5314610a1f578063c4c20eec14610abb578063cd9a1fa614610af6578063cfb5192814610b1f578063d2ce842014610b98578063d4ee1d9014610bfb578063d534831c14610c50578063dc39d06d14610c79578063eba74c0b14610cd3578063f2fde38b14610d51578063f8e27f9314610d8a575b600080fd5b34156101dd57600080fd5b6101e5610dc1565b6040518080602001828103825283818151815260200191508051906020019080838360005b8381101561022557808201518184015260208101905061020a565b50505050905090810190601f1680156102525780820380516001836020036101000a031916815260200191505b509250505060405180910390f35b341561026b57600080fd5b6102a0600480803573ffffffffffffffffffffffffffffffffffffffff16906020019091908035906020019091905050610e04565b005b34156102ad57600080fd5b6102b5610f67565b6040518082815260200191505060405180910390f35b34156102d657600080fd5b6102ec6004808035906020019091905050610f6d565b6040518082815260200191505060405180910390f35b341561030d57600080fd5b610339600480803573ffffffffffffffffffffffffffffffffffffffff16906020019091905050610f87565b005b341561034657600080fd5b61034e6110ef565b6040518082815260200191505060405180910390f35b341561036f57600080fd5b6103c3600480803573ffffffffffffffffffffffffffffffffffffffff1690602001909190803573ffffffffffffffffffffffffffffffffffffffff169060200190919080359060200190919050506110f9565b005b34156103d057600080fd5b6103fc600480803573ffffffffffffffffffffffffffffffffffffffff169060200190919050506112e9565b604051808215151515815260200191505060405180910390f35b341561042157600080fd5b61044d600480803573ffffffffffffffffffffffffffffffffffffffff16906020019091905050611309565b6040518082815260200191505060405180910390f35b341561046e57600080fd5b6104846004808035906020019091905050611321565b6040518080602001828103825283818151815260200191508051906020019080838360005b838110156104c45780820151818401526020810190506104a9565b50505050905090810190601f1680156104f15780820380516001836020036101000a031916815260200191505b509250505060405180910390f35b341561050a57600080fd5b6105206004808035906020019091905050611366565b60405180826000191660001916815260200191505060405180910390f35b341561054957600080fd5b61055161138a565b6040518082815260200191505060405180910390f35b341561057257600080fd5b6105c2600480803590602001908201803590602001908080601f01602080910402602001604051908101604052809392919081815260200183838082843782019150505050505091905050611390565b604051808215151515815260200191505060405180910390f35b34156105e757600080fd5b6105fd600480803590602001909190505061161c565b604051808273ffffffffffffffffffffffffffffffffffffffff1673ffffffffffffffffffffffffffffffffffffffff16815260200191505060405180910390f35b341561064a57600080fd5b610676600480803573ffffffffffffffffffffffffffffffffffffffff16906020019091905050611695565b6040518082815260200191505060405180910390f35b341561069757600080fd5b6106c3600480803573ffffffffffffffffffffffffffffffffffffffff16906020019091905050611882565b005b34156106d057600080fd5b6106fc600480803573ffffffffffffffffffffffffffffffffffffffff169060200190919050506119ea565b6040518082815260200191505060405180910390f35b341561071d57600080fd5b6107336004808035906020019091905050611a33565b604051808273ffffffffffffffffffffffffffffffffffffffff1673ffffffffffffffffffffffffffffffffffffffff16815260200191505060405180910390f35b341561078057600080fd5b610788611a66565b005b341561079557600080fd5b61079d611bc3565b604051808273ffffffffffffffffffffffffffffffffffffffff1673ffffffffffffffffffffffffffffffffffffffff16815260200191505060405180910390f35b34156107ea57600080fd5b610804600480803560001916906020019091905050611be8565b6040518080602001828103825283818151815260200191508051906020019080838360005b83811015610844578082015181840152602081019050610829565b50505050905090810190601f1680156108715780820380516001836020036101000a031916815260200191505b509250505060405180910390f35b341561088a57600080fd5b610892611dd5565b6040518080602001828103825283818151815260200191508051906020019080838360005b838110156108d25780820151818401526020810190506108b7565b50505050905090810190601f1680156108ff5780820380516001836020036101000a031916815260200191505b509250505060405180910390f35b341561091857600080fd5b610920611e18565b6040518082815260200191505060405180910390f35b341561094157600080fd5b610976600480803573ffffffffffffffffffffffffffffffffffffffff16906020019091908035906020019091905050611e1e565b005b341561098357600080fd5b61098b611fdf565b6040518082815260200191505060405180910390f35b34156109ac57600080fd5b610a05600480803590602001908201803590602001908080601f01602080910402602001604051908101604052809392919081815260200183838082843782019150505050505091908035906020019091905050611fe5565b604051808215151515815260200191505060405180910390f35b3415610a2a57600080fd5b610a406004808035906020019091905050612178565b6040518080602001828103825283818151815260200191508051906020019080838360005b83811015610a80578082015181840152602081019050610a65565b50505050905090810190601f168015610aad5780820380516001836020036101000a031916815260200191505b509250505060405180910390f35b3415610ac657600080fd5b610ae06004808035600019169060200190919050506121a3565b6040518082815260200191505060405180910390f35b3415610b0157600080fd5b610b096121bb565b6040518082815260200191505060405180910390f35b3415610b2a57600080fd5b610b7a600480803590602001908201803590602001908080601f016020809104026020016040519081016040528093929190818152602001838380828437820191505050505050919050506121c5565b60405180826000191660001916815260200191505060405180910390f35b3415610ba357600080fd5b610bb960048080359060200190919050506121f6565b604051808273ffffffffffffffffffffffffffffffffffffffff1673ffffffffffffffffffffffffffffffffffffffff16815260200191505060405180910390f35b3415610c0657600080fd5b610c0e612229565b604051808273ffffffffffffffffffffffffffffffffffffffff1673ffffffffffffffffffffffffffffffffffffffff16815260200191505060405180910390f35b3415610c5b57600080fd5b610c6361224f565b6040518082815260200191505060405180910390f35b3415610c8457600080fd5b610cb9600480803573ffffffffffffffffffffffffffffffffffffffff16906020019091908035906020019091905050612255565b604051808215151515815260200191505060405180910390f35b3415610cde57600080fd5b610d37600480803590602001908201803590602001908080601f016020809104026020016040519081016040528093929190818152602001838380828437820191505050505050919080359060200190919050506123a1565b604051808215151515815260200191505060405180910390f35b3415610d5c57600080fd5b610d88600480803573ffffffffffffffffffffffffffffffffffffffff16906020019091905050612522565b005b3415610d9557600080fd5b610dab6004808035906020019091905050612678565b6040518082815260200191505060405180910390f35b610dc96129cd565b6040805190810160405280600a81526020017f47697a6572204974656d00000000000000000000000000000000000000000000815250905090565b6006600082815260200190815260200160002060009054906101000a900473ffffffffffffffffffffffffffffffffffffffff1673ffffffffffffffffffffffffffffffffffffffff163373ffffffffffffffffffffffffffffffffffffffff16141515610e7157600080fd5b8173ffffffffffffffffffffffffffffffffffffffff163373ffffffffffffffffffffffffffffffffffffffff1614151515610eac57600080fd5b816007600083815260200190815260200160002060006101000a81548173ffffffffffffffffffffffffffffffffffffffff021916908373ffffffffffffffffffffffffffffffffffffffff1602179055508173ffffffffffffffffffffffffffffffffffffffff163373ffffffffffffffffffffffffffffffffffffffff167f8c5be1e5ebec7d5bd14f71427d1e84f3dd0314c0f7b2291e5b200ac8c7c3b925836040518082815260200191505060405180910390a35050565b60035481565b600081905060045481101515610f8257600080fd5b919050565b6000809054906101000a900473ffffffffffffffffffffffffffffffffffffffff1673ffffffffffffffffffffffffffffffffffffffff163373ffffffffffffffffffffffffffffffffffffffff16141515610fe257600080fd5b60011515600260008373ffffffffffffffffffffffffffffffffffffffff1673ffffffffffffffffffffffffffffffffffffffff16815260200190815260200160002060009054906101000a900460ff16151514151561104157600080fd5b6000600260008373ffffffffffffffffffffffffffffffffffffffff1673ffffffffffffffffffffffffffffffffffffffff16815260200190815260200160002060006101000a81548160ff0219169083151502179055508073ffffffffffffffffffffffffffffffffffffffff167faff098f53523369cef878ae47c10d27a8a918f0da3221b889da1776ab58f553f6000604051808215151515815260200191505060405180910390a250565b6000600454905090565b6006600082815260200190815260200160002060009054906101000a900473ffffffffffffffffffffffffffffffffffffffff1673ffffffffffffffffffffffffffffffffffffffff168373ffffffffffffffffffffffffffffffffffffffff161480156111c557503373ffffffffffffffffffffffffffffffffffffffff166007600083815260200190815260200160002060009054906101000a900473ffffffffffffffffffffffffffffffffffffffff1673ffffffffffffffffffffffffffffffffffffffff16145b15156111d057600080fd5b816006600083815260200190815260200160002060006101000a81548173ffffffffffffffffffffffffffffffffffffffff021916908373ffffffffffffffffffffffffffffffffffffffff16021790555060006007600083815260200190815260200160002060006101000a81548173ffffffffffffffffffffffffffffffffffffffff021916908373ffffffffffffffffffffffffffffffffffffffff16021790555061127f838361269c565b8173ffffffffffffffffffffffffffffffffffffffff168373ffffffffffffffffffffffffffffffffffffffff167fddf252ad1be2c89b69c2b068fc378daa952ba7f163c4a11628f55a4df523b3ef836040518082815260200191505060405180910390a3505050565b60026020528060005260406000206000915054906101000a900460ff1681565b60056020528060005260406000206000915090505481565b6113296129cd565b6008805490508210151561133c57600080fd5b61135f60088381548110151561134e57fe5b906000526020600020900154611be8565b9050919050565b60088181548110151561137557fe5b90600052602060002090016000915090505481565b60045481565b600080600080600260003373ffffffffffffffffffffffffffffffffffffffff1673ffffffffffffffffffffffffffffffffffffffff16815260200190815260200160002060009054906101000a900460ff1615156113ee57600080fd5b6113f7856121c5565b92506000600b600085600019166000191681526020019081526020016000205411151561142357600080fd5b6001600b6000856000191660001916815260200190815260200160002054039150600160088054905003905061147e60098381548110151561146157fe5b906000526020600020900154600a5461282d90919063ffffffff16565b600a819055506000600b6000856000191660001916815260200190815260200160002081905550808214151561155f576008818154811015156114bd57fe5b9060005260206000209001546008838154811015156114d857fe5b906000526020600020900181600019169055506009818154811015156114fa57fe5b90600052602060002090015460098381548110151561151557fe5b90600052602060002090018190555081600b600060088481548110151561153857fe5b90600052602060002090015460001916600019168152602001908152602001600020819055505b60088181548110151561156e57fe5b906000526020600020900160009055600880548091906001900361159291906129e1565b506009818154811015156115a257fe5b90600052602060002090016000905560098054809190600190036115c69190612a0d565b50826000191660037f52b5fdb8ad051796554f4abfd519b3fc640925d4f26a660a31211dda67c493486000600a54604051808381526020018281526020019250505060405180910390a360019350505050919050565b60006006600083815260200190815260200160002060009054906101000a900473ffffffffffffffffffffffffffffffffffffffff169050600073ffffffffffffffffffffffffffffffffffffffff168173ffffffffffffffffffffffffffffffffffffffff161415151561169057600080fd5b919050565b600080600260003373ffffffffffffffffffffffffffffffffffffffff1673ffffffffffffffffffffffffffffffffffffffff16815260200190815260200160002060009054906101000a900460ff1615156116f057600080fd5b6000600a5411151561170157600080fd5b600073ffffffffffffffffffffffffffffffffffffffff168373ffffffffffffffffffffffffffffffffffffffff161415151561173d57600080fd5b3073ffffffffffffffffffffffffffffffffffffffff168373ffffffffffffffffffffffffffffffffffffffff161415151561177857600080fd5b611780612849565b9050600460008154809291906001019190505550600454915080600e600084815260200190815260200160002081600019169055506117c060008461269c565b826006600084815260200190815260200160002060006101000a81548173ffffffffffffffffffffffffffffffffffffffff021916908373ffffffffffffffffffffffffffffffffffffffff16021790555080600019168373ffffffffffffffffffffffffffffffffffffffff163373ffffffffffffffffffffffffffffffffffffffff167fc014ce867fdfdb48c9ddb8b9570d2acec76fbdd22304f6c2dbb92f8245c00455856040518082815260200191505060405180910390a450919050565b6000809054906101000a900473ffffffffffffffffffffffffffffffffffffffff1673ffffffffffffffffffffffffffffffffffffffff163373ffffffffffffffffffffffffffffffffffffffff161415156118dd57600080fd5b60001515600260008373ffffffffffffffffffffffffffffffffffffffff1673ffffffffffffffffffffffffffffffffffffffff16815260200190815260200160002060009054906101000a900460ff16151514151561193c57600080fd5b6001600260008373ffffffffffffffffffffffffffffffffffffffff1673ffffffffffffffffffffffffffffffffffffffff16815260200190815260200160002060006101000a81548160ff0219169083151502179055508073ffffffffffffffffffffffffffffffffffffffff167faff098f53523369cef878ae47c10d27a8a918f0da3221b889da1776ab58f553f6001604051808215151515815260200191505060405180910390a250565b6000600560008373ffffffffffffffffffffffffffffffffffffffff1673ffffffffffffffffffffffffffffffffffffffff168152602001908152602001600020549050919050565b60076020528060005260406000206000915054906101000a900473ffffffffffffffffffffffffffffffffffffffff1681565b600160009054906101000a900473ffffffffffffffffffffffffffffffffffffffff1673ffffffffffffffffffffffffffffffffffffffff163373ffffffffffffffffffffffffffffffffffffffff16141515611ac257600080fd5b600160009054906101000a900473ffffffffffffffffffffffffffffffffffffffff1673ffffffffffffffffffffffffffffffffffffffff166000809054906101000a900473ffffffffffffffffffffffffffffffffffffffff1673ffffffffffffffffffffffffffffffffffffffff167f8be0079c531659141344cd1fd0a4f28419497f9722a3daafe3b4186f6b6457e060405160405180910390a3600160009054906101000a900473ffffffffffffffffffffffffffffffffffffffff166000806101000a81548173ffffffffffffffffffffffffffffffffffffffff021916908373ffffffffffffffffffffffffffffffffffffffff160217905550565b6000809054906101000a900473ffffffffffffffffffffffffffffffffffffffff1681565b611bf06129cd565b611bf8612a39565b6000806000611c05612a39565b6020604051805910611c145750595b9080825280601f01601f1916602001820160405250945060009350600092505b6020831015611cf2578260080260020a876001900402600102915060007f010000000000000000000000000000000000000000000000000000000000000002827effffffffffffffffffffffffffffffffffffffffffffffffffffffffffffff1916141515611ce557818585815181101515611cac57fe5b9060200101907effffffffffffffffffffffffffffffffffffffffffffffffffffffffffffff1916908160001a90535083806001019450505b8280600101935050611c34565b83604051805910611d005750595b9080825280601f01601f19166020018201604052509050600092505b83831015611dc8578483815181101515611d3257fe5b9060200101517f010000000000000000000000000000000000000000000000000000000000000090047f0100000000000000000000000000000000000000000000000000000000000000028184815181101515611d8b57fe5b9060200101907effffffffffffffffffffffffffffffffffffffffffffffffffffffffffffff1916908160001a9053508280600101935050611d1c565b8095505050505050919050565b611ddd6129cd565b6040805190810160405280600681526020017f475a523732310000000000000000000000000000000000000000000000000000815250905090565b600d5481565b6006600082815260200190815260200160002060009054906101000a900473ffffffffffffffffffffffffffffffffffffffff1673ffffffffffffffffffffffffffffffffffffffff163373ffffffffffffffffffffffffffffffffffffffff16141515611e8b57600080fd5b600073ffffffffffffffffffffffffffffffffffffffff168273ffffffffffffffffffffffffffffffffffffffff1614151515611ec757600080fd5b816006600083815260200190815260200160002060006101000a81548173ffffffffffffffffffffffffffffffffffffffff021916908373ffffffffffffffffffffffffffffffffffffffff16021790555060006007600083815260200190815260200160002060006101000a81548173ffffffffffffffffffffffffffffffffffffffff021916908373ffffffffffffffffffffffffffffffffffffffff160217905550611f76338361269c565b8173ffffffffffffffffffffffffffffffffffffffff163373ffffffffffffffffffffffffffffffffffffffff167fddf252ad1be2c89b69c2b068fc378daa952ba7f163c4a11628f55a4df523b3ef836040518082815260200191505060405180910390a35050565b600c5481565b6000806000600260003373ffffffffffffffffffffffffffffffffffffffff1673ffffffffffffffffffffffffffffffffffffffff16815260200190815260200160002060009054906101000a900460ff16151561204257600080fd5b61204b856121c5565b915060008411151561205c57600080fd5b6000600b600084600019166000191681526020019081526020016000205414151561208657600080fd5b6008805490509050600880548060010182816120a29190612a4d565b916000526020600020900160008490919091509060001916905550600980548060010182816120d19190612a79565b91600052602060002090016000869091909150555060018101600b600084600019166000191681526020019081526020016000208190555061211e84600a5461291290919063ffffffff16565b600a81905550816000191660017f52b5fdb8ad051796554f4abfd519b3fc640925d4f26a660a31211dda67c4934886600a54604051808381526020018281526020019250505060405180910390a360019250505092915050565b6121806129cd565b61219c600e600084815260200190815260200160002054611be8565b9050919050565b600b6020528060005260406000206000915090505481565b6000600354905090565b60006121cf612a39565b8290506000815114156121e857600060010291506121f0565b602083015191505b50919050565b60066020528060005260406000206000915054906101000a900473ffffffffffffffffffffffffffffffffffffffff1681565b600160009054906101000a900473ffffffffffffffffffffffffffffffffffffffff1681565b600a5481565b60008060009054906101000a900473ffffffffffffffffffffffffffffffffffffffff1673ffffffffffffffffffffffffffffffffffffffff163373ffffffffffffffffffffffffffffffffffffffff161415156122b257600080fd5b8273ffffffffffffffffffffffffffffffffffffffff1663a9059cbb6000809054906101000a900473ffffffffffffffffffffffffffffffffffffffff16846000604051602001526040518363ffffffff167c0100000000000000000000000000000000000000000000000000000000028152600401808373ffffffffffffffffffffffffffffffffffffffff1673ffffffffffffffffffffffffffffffffffffffff16815260200182815260200192505050602060405180830381600087803b151561237e57600080fd5b6102c65a03f1151561238f57600080fd5b50505060405180519050905092915050565b600080600080600260003373ffffffffffffffffffffffffffffffffffffffff1673ffffffffffffffffffffffffffffffffffffffff16815260200190815260200160002060009054906101000a900460ff1615156123ff57600080fd5b612408866121c5565b925060008511151561241957600080fd5b6000600b600085600019166000191681526020019081526020016000205411151561244357600080fd5b6001600b600085600019166000191681526020019081526020016000205403915060098281548110151561247357fe5b90600052602060002090015490508460098381548110151561249157fe5b9060005260206000209001819055506124c7856124b983600a5461282d90919063ffffffff16565b61291290919063ffffffff16565b600a81905550826000191660027f52b5fdb8ad051796554f4abfd519b3fc640925d4f26a660a31211dda67c4934887600a54604051808381526020018281526020019250505060405180910390a36001935050505092915050565b6000809054906101000a900473ffffffffffffffffffffffffffffffffffffffff1673ffffffffffffffffffffffffffffffffffffffff163373ffffffffffffffffffffffffffffffffffffffff1614151561257d57600080fd5b600073ffffffffffffffffffffffffffffffffffffffff168173ffffffffffffffffffffffffffffffffffffffff16141515156125b957600080fd5b8073ffffffffffffffffffffffffffffffffffffffff166000809054906101000a900473ffffffffffffffffffffffffffffffffffffffff1673ffffffffffffffffffffffffffffffffffffffff167ff4e75b79500ab730f8a026ed3cba6d55331bcb64c9e9f60c548e371356e5e3c060405160405180910390a380600160006101000a81548173ffffffffffffffffffffffffffffffffffffffff021916908373ffffffffffffffffffffffffffffffffffffffff16021790555050565b60098181548110151561268757fe5b90600052602060002090016000915090505481565b600073ffffffffffffffffffffffffffffffffffffffff168273ffffffffffffffffffffffffffffffffffffffff1614151561277f57600560008373ffffffffffffffffffffffffffffffffffffffff1673ffffffffffffffffffffffffffffffffffffffff16815260200190815260200160002060008154809291906001900391905055506000600560008473ffffffffffffffffffffffffffffffffffffffff1673ffffffffffffffffffffffffffffffffffffffff16815260200190815260200160002054141561277e57600360008154809291906001900391905055505b5b600560008273ffffffffffffffffffffffffffffffffffffffff1673ffffffffffffffffffffffffffffffffffffffff168152602001908152602001600020600081548092919060010191905055506001600560008373ffffffffffffffffffffffffffffffffffffffff1673ffffffffffffffffffffffffffffffffffffffff168152602001908152602001600020541415612829576003600081548092919060010191905055505b5050565b600082821115151561283e57600080fd5b818303905092915050565b60008060008060016008805490501415612880576008600081548110151561286d57fe5b906000526020600020900154935061290c565b61288861292e565b600a54600d5481151561289757fe5b06925060009150600090505b600880549050811015612907576009818154811015156128bf57fe5b9060005260206000209001548201915082821015156128fa576008818154811015156128e757fe5b906000526020600020900154935061290c565b80806001019150506128a3565b600080fd5b50505090565b6000818301905082811015151561292857600080fd5b92915050565b600c60008154809291906001019190505550600c54600d54600143034041446040518086815260200185815260200184600019166000191681526020018373ffffffffffffffffffffffffffffffffffffffff1673ffffffffffffffffffffffffffffffffffffffff166c0100000000000000000000000002815260140182815260200195505050505050604051809103902060019004600d81905550565b602060405190810160405280600081525090565b815481835581811511612a0857818360005260206000209182019101612a079190612aa5565b5b505050565b815481835581811511612a3457818360005260206000209182019101612a339190612aca565b5b505050565b602060405190810160405280600081525090565b815481835581811511612a7457818360005260206000209182019101612a739190612aa5565b5b505050565b815481835581811511612aa057818360005260206000209182019101612a9f9190612aca565b5b505050565b612ac791905b80821115612ac3576000816000905550600101612aab565b5090565b90565b612aec91905b80821115612ae8576000816000905550600101612ad0565b5090565b905600a165627a7a723058204f8f9798fefe4d72b755e3dca515676ad9e8adef95d758000af503e07bfd172e0029",
  "source": "pragma solidity ^0.4.19;\n\n// ----------------------------------------------------------------------------\n//\n// GZR 'Gizer Gaming' token public sale contract\n//\n// For details, please visit: http://www.gizer.io\n//\n// ----------------------------------------------------------------------------\n\n\n// ----------------------------------------------------------------------------\n//\n// SafeMath (division not needed)\n//\n// ----------------------------------------------------------------------------\n\nlibrary SafeMath {\n\n  function add(uint a, uint b) internal pure returns (uint c) {\n    c = a + b;\n    require( c >= a );\n  }\n\n  function sub(uint a, uint b) internal pure returns (uint c) {\n    require( b <= a );\n    c = a - b;\n  }\n\n  function mul(uint a, uint b) internal pure returns (uint c) {\n    c = a * b;\n    require( a == 0 || c / a == b );\n  }\n\n}\n\n\n// ----------------------------------------------------------------------------\n//\n// Owned contract\n//\n// ----------------------------------------------------------------------------\n\ncontract Owned {\n\n  address public owner;\n  address public newOwner;\n\n  mapping(address => bool) public isAdmin;\n\n  // Events ---------------------------\n\n  event OwnershipTransferProposed(address indexed _from, address indexed _to);\n  event OwnershipTransferred(address indexed _from, address indexed _to);\n  event AdminChange(address indexed _admin, bool _status);\n\n  // Modifiers ------------------------\n\n  modifier onlyOwner { require( msg.sender == owner ); _; }\n  modifier onlyAdmin { require( isAdmin[msg.sender] ); _; }\n\n  // Functions ------------------------\n\n  function Owned() public {\n    owner = msg.sender;\n    isAdmin[owner] = true;\n  }\n\n  function transferOwnership(address _newOwner) public onlyOwner {\n    require( _newOwner != address(0x0) );\n    OwnershipTransferProposed(owner, _newOwner);\n    newOwner = _newOwner;\n  }\n\n  function acceptOwnership() public {\n    require(msg.sender == newOwner);\n    OwnershipTransferred(owner, newOwner);\n    owner = newOwner;\n  }\n  \n  function addAdmin(address _a) public onlyOwner {\n    require( isAdmin[_a] == false );\n    isAdmin[_a] = true;\n    AdminChange(_a, true);\n  }\n\n  function removeAdmin(address _a) public onlyOwner {\n    require( isAdmin[_a] == true );\n    isAdmin[_a] = false;\n    AdminChange(_a, false);\n  }\n  \n}\n\n\n// ----------------------------------------------------------------------------\n//\n// ERC Token Standard #20 Interface\n// https://github.com/ethereum/EIPs/blob/master/EIPS/eip-20-token-standard.md\n//\n// ----------------------------------------------------------------------------\n\ncontract ERC20Interface {\n\n  // Events ---------------------------\n\n  event Transfer(address indexed _from, address indexed _to, uint _value);\n  event Approval(address indexed _owner, address indexed _spender, uint _value);\n\n  // Functions ------------------------\n\n  function totalSupply() public view returns (uint);\n  function balanceOf(address _owner) public view returns (uint balance);\n  function transfer(address _to, uint _value) public returns (bool success);\n  function transferFrom(address _from, address _to, uint _value) public returns (bool success);\n  function approve(address _spender, uint _value) public returns (bool success);\n  function allowance(address _owner, address _spender) public view returns (uint remaining);\n\n}\n\n\n// ----------------------------------------------------------------------------\n//\n// ERC Token Standard #20\n//\n// ----------------------------------------------------------------------------\n\ncontract ERC20Token is ERC20Interface, Owned {\n  \n  using SafeMath for uint;\n\n  uint public tokensIssuedTotal = 0;\n  mapping(address => uint) balances;\n  mapping(address => mapping (address => uint)) allowed;\n\n  // Functions ------------------------\n\n  /* Total token supply */\n\n  function totalSupply() public view returns (uint) {\n    return tokensIssuedTotal;\n  }\n\n  /* Get the account balance for an address */\n\n  function balanceOf(address _owner) public view returns (uint balance) {\n    return balances[_owner];\n  }\n\n  /* Transfer the balance from owner's account to another account */\n\n  function transfer(address _to, uint _amount) public returns (bool success) {\n    // amount sent cannot exceed balance\n    require( balances[msg.sender] >= _amount );\n\n    // update balances\n    balances[msg.sender] = balances[msg.sender].sub(_amount);\n    balances[_to]        = balances[_to].add(_amount);\n\n    // log event\n    Transfer(msg.sender, _to, _amount);\n    return true;\n  }\n\n  /* Allow _spender to withdraw from your account up to _amount */\n\n  function approve(address _spender, uint _amount) public returns (bool success) {\n    // approval amount cannot exceed the balance\n    require( balances[msg.sender] >= _amount );\n      \n    // update allowed amount\n    allowed[msg.sender][_spender] = _amount;\n    \n    // log event\n    Approval(msg.sender, _spender, _amount);\n    return true;\n  }\n\n  /* Spender of tokens transfers tokens from the owner's balance */\n  /* Must be pre-approved by owner */\n\n  function transferFrom(address _from, address _to, uint _amount) public returns (bool success) {\n    // balance checks\n    require( balances[_from] >= _amount );\n    require( allowed[_from][msg.sender] >= _amount );\n\n    // update balances and allowed amount\n    balances[_from]            = balances[_from].sub(_amount);\n    allowed[_from][msg.sender] = allowed[_from][msg.sender].sub(_amount);\n    balances[_to]              = balances[_to].add(_amount);\n\n    // log event\n    Transfer(_from, _to, _amount);\n    return true;\n  }\n\n  /* Returns the amount of tokens approved by the owner */\n  /* that can be transferred by spender */\n\n  function allowance(address _owner, address _spender) public view returns (uint remaining) {\n    return allowed[_owner][_spender];\n  }\n\n}\n\n\n// ----------------------------------------------------------------------------\n//\n// GZR public token sale\n//\n// ----------------------------------------------------------------------------\n\ncontract GizerToken is ERC20Token {\n\n  /* Utility variable */\n  \n  uint constant E6  = 10**6;\n\n  /* Basic token data */\n\n  string public constant name     = \"Gizer Gaming Token\";\n  string public constant symbol   = \"GZR\";\n  uint8  public constant decimals = 6;\n\n  /* Wallets */\n  \n  address public wallet;\n  address public redemptionWallet;\n  address public gizerItemsContract;\n\n  /* Crowdsale parameters (constants) */\n\n  uint public constant DATE_ICO_START = 152112400; // 15-Mar-2018 14:00 UTC 10:00 EST\n  uint public constant DATE_ICO_END   = 1523368800; // 10-Apr-2018 14:00 UTC 10:00 EST\n\n  uint public constant TOKEN_SUPPLY_TOTAL = 10000000 * E6;\n  uint public constant TOKEN_SUPPLY_CROWD =  6112926 * E6;\n  uint public constant TOKEN_SUPPLY_OWNER =  3887074 * E6; // 2,000,000 tokens reserve\n                                                           // 1,887,074 presale tokens\n\n  uint public constant MIN_CONTRIBUTION = 1 ether / 100;  \n  \n  uint public constant TOKENS_PER_ETH = 1000;\n  \n  uint public constant DATE_TOKENS_UNLOCKED = 1539180000; // 10-OCT-2018 14:00 UTC 10:00 EST\n  \n  /* Crowdsale variables */\n\n  uint public tokensIssuedCrowd  = 0;\n  uint public tokensIssuedOwner  = 0;\n  uint public tokensIssuedLocked = 0;\n  \n  uint public etherReceived = 0; // does not include presale ethers\n\n  /* Keep track of + ethers contributed,\n                   + tokens received \n                   + tokens locked during Crowdsale */\n  \n  mapping(address => uint) public etherContributed;\n  mapping(address => uint) public tokensReceived;\n  mapping(address => uint) public locked;\n  \n  // Events ---------------------------\n  \n  event WalletUpdated(address _newWallet);\n  event GizerItemsContractUpdated(address _GizerItemsContract);\n  event RedemptionWalletUpdated(address _newRedemptionWallet);\n  event EthCentsUpdated(uint _cents);\n  event TokensIssuedCrowd(address indexed _recipient, uint _tokens, uint _ether);\n  event TokensIssuedOwner(address indexed _recipient, uint _tokens, bool _locked);\n  event ItemsBought(address indexed _recipient, uint _lastIdx, uint _number);\n\n  // Basic Functions ------------------\n\n  /* Initialize */\n\n  function GizerToken() public {\n    require( TOKEN_SUPPLY_OWNER + TOKEN_SUPPLY_CROWD == TOKEN_SUPPLY_TOTAL );\n    wallet = owner;\n    redemptionWallet = owner;\n  }\n\n  /* Fallback */\n  \n  function () public payable {\n    buyTokens();\n  }\n\n  // Information Functions ------------\n  \n  /* What time is it? */\n  \n  function atNow() public view returns (uint) {\n    return now;\n  }\n\n  /* Are tokens tradeable */\n  \n  function tradeable() public view returns (bool) {\n    if (atNow() > DATE_ICO_END) return true ;\n    return false;\n  }\n  \n  /* Available to mint by owner */\n  \n  function availableToMint() public view returns (uint available) {\n    if (atNow() <= DATE_ICO_END) {\n      available = TOKEN_SUPPLY_OWNER.sub(tokensIssuedOwner);\n    } else {\n      available = TOKEN_SUPPLY_TOTAL.sub(tokensIssuedTotal);\n    }\n  }\n  \n  /* Unlocked tokens in an account */\n  \n  function unlockedTokens(address _account) public view returns (uint _unlockedTokens) {\n    if (atNow() <= DATE_TOKENS_UNLOCKED) {\n      return balances[_account] - locked[_account];\n    } else {\n      return balances[_account];\n    }\n  }\n\n  // Owner Functions ------------------\n  \n  /* Change the crowdsale wallet address */\n\n  function setWallet(address _wallet) public onlyOwner {\n    require( _wallet != address(0x0) );\n    wallet = _wallet;\n    WalletUpdated(_wallet);\n  }\n\n  /* Change the redemption wallet address */\n\n  function setRedemptionWallet(address _wallet) public onlyOwner {\n    require( _wallet != address(0x0) );\n    redemptionWallet = _wallet;\n    RedemptionWalletUpdated(_wallet);\n  }\n  \n  /* Change the redemption wallet address */\n\n  function setGizerItemsContract(address _contract) public onlyOwner {\n    require( _contract != address(0x0) );\n    gizerItemsContract = _contract;\n    GizerItemsContractUpdated(_contract);\n  }\n  \n  /* Minting of tokens by owner */\n\n  function mintTokens(address _account, uint _tokens) public onlyOwner {\n    // check token amount\n    require( _tokens <= availableToMint() );\n    \n    // update\n    balances[_account] = balances[_account].add(_tokens);\n    tokensIssuedOwner  = tokensIssuedOwner.add(_tokens);\n    tokensIssuedTotal  = tokensIssuedTotal.add(_tokens);\n    \n    // log event\n    Transfer(0x0, _account, _tokens);\n    TokensIssuedOwner(_account, _tokens, false);\n  }\n\n  /* Minting of tokens by owner */\n\n  function mintTokensLocked(address _account, uint _tokens) public onlyOwner {\n    // check token amount\n    require( _tokens <= availableToMint() );\n    \n    // update\n    balances[_account] = balances[_account].add(_tokens);\n    locked[_account]   = locked[_account].add(_tokens);\n    tokensIssuedOwner  = tokensIssuedOwner.add(_tokens);\n    tokensIssuedTotal  = tokensIssuedTotal.add(_tokens);\n    tokensIssuedLocked = tokensIssuedLocked.add(_tokens);\n    \n    // log event\n    Transfer(0x0, _account, _tokens);\n    TokensIssuedOwner(_account, _tokens, true);\n  }  \n  \n  /* Transfer out any accidentally sent ERC20 tokens */\n\n  function transferAnyERC20Token(address tokenAddress, uint amount) public onlyOwner returns (bool success) {\n      return ERC20Interface(tokenAddress).transfer(owner, amount);\n  }\n\n  // Private functions ----------------\n\n  /* Accept ETH during crowdsale (called by default function) */\n\n  function buyTokens() private {\n    \n    // basic checks\n    require( atNow() > DATE_ICO_START && atNow() < DATE_ICO_END );\n    require( msg.value >= MIN_CONTRIBUTION );\n    \n    // check token volume\n    uint tokensAvailable = TOKEN_SUPPLY_CROWD.sub(tokensIssuedCrowd);\n    uint tokens = msg.value.mul(TOKENS_PER_ETH) / 10**12;\n    require( tokens <= tokensAvailable );\n    \n    // issue tokens\n    balances[msg.sender] = balances[msg.sender].add(tokens);\n    \n    // update global tracking variables\n    tokensIssuedCrowd  = tokensIssuedCrowd.add(tokens);\n    tokensIssuedTotal  = tokensIssuedTotal.add(tokens);\n    etherReceived      = etherReceived.add(msg.value);\n    \n    // update contributor tracking variables\n    etherContributed[msg.sender] = etherContributed[msg.sender].add(msg.value);\n    tokensReceived[msg.sender]   = tokensReceived[msg.sender].add(tokens);\n    \n    // transfer Ether out\n    if (this.balance > 0) wallet.transfer(this.balance);\n\n    // log token issuance\n    TokensIssuedCrowd(msg.sender, tokens, msg.value);\n    Transfer(0x0, msg.sender, tokens);\n  }\n\n  // ERC20 functions ------------------\n\n  /* Override \"transfer\" */\n\n  function transfer(address _to, uint _amount) public returns (bool success) {\n    require( tradeable() );\n    require( unlockedTokens(msg.sender) >= _amount );\n    return super.transfer(_to, _amount);\n  }\n  \n  /* Override \"transferFrom\" */\n\n  function transferFrom(address _from, address _to, uint _amount) public returns (bool success) {\n    require( tradeable() );\n    require( unlockedTokens(_from) >= _amount ); \n    return super.transferFrom(_from, _to, _amount);\n  }\n\n  // Bulk token transfer function -----\n\n  /* Multiple token transfers from one address to save gas */\n\n  function transferMultiple(address[] _addresses, uint[] _amounts) external {\n    require( tradeable() );\n    require( _addresses.length == _amounts.length );\n    require( _addresses.length <= 100 );\n    \n    uint i;\n    \n    // check token amounts\n    uint tokens_to_transfer = 0;\n    for (i = 0; i < _addresses.length; i++) {\n      tokens_to_transfer = tokens_to_transfer.add(_amounts[i]);\n    }\n    require( tokens_to_transfer <= unlockedTokens(msg.sender) );\n    \n    // do the transfers\n    for (i = 0; i < _addresses.length; i++) {\n      super.transfer(_addresses[i], _amounts[i]);\n    }\n  }\n  \n  // Functions to convert GZR to Gizer items -----------\n  \n  /* GZR token owner buys one Gizer Item */ \n  \n  function buyItem() public returns (uint idx) {\n    super.transfer(redemptionWallet, E6);\n    idx = mintItem(msg.sender);\n\n    // event\n    ItemsBought(msg.sender, idx, 1);\n  }\n  \n  /* GZR token owner buys several Gizer Items (max 100) */ \n  \n  function buyMultipleItems(uint8 _items) public returns (uint idx) {\n    \n    // between 0 and 100 items\n    require( _items > 0 && _items <= 100 );\n\n    // transfer GZR tokens to redemption wallet\n    super.transfer(redemptionWallet, _items * E6);\n    \n    // mint tokens, returning indexes of first and last item minted\n    for (uint i = 0; i < _items; i++) {\n      idx = mintItem(msg.sender);\n    }\n\n    // event\n    ItemsBought(msg.sender, idx, _items);\n  }\n\n  /* Internal function to call */\n  \n  function mintItem(address _owner) internal returns(uint idx) {\n    GizerItemsInterface g = GizerItemsInterface(gizerItemsContract);\n    idx = g.mint(_owner);\n  }\n  \n}\n\n\n// ----------------------------------------------------------------------------\n//\n// GZR Items interface\n//\n// ----------------------------------------------------------------------------\n\ncontract GizerItemsInterface is Owned {\n\n  function mint(address _to) public onlyAdmin returns (uint idx);\n\n}\n\n\n// ----------------------------------------------------------------------------\n//\n// Gizer Items - ERC721(ish) contract\n//\n// ----------------------------------------------------------------------------\n\n\n\n// ----------------------------------------------------------------------------\n//\n// ERC721(ish) Token Interface \n//\n// ----------------------------------------------------------------------------\n\n\ninterface ERC721Interface /* is ERC165 */ {\n\n    event Transfer(address indexed _from, address indexed _to, uint256 _deedId);\n    event Approval(address indexed _owner, address indexed _approved, uint256 _deedId);\n    event ApprovalForAll(address indexed _owner, address indexed _operator, bool _approved);\n\n    function balanceOf(address _owner) external view returns (uint256 _balance);\n    function ownerOf(uint256 _deedId) external view returns (address _owner);\n    function transfer(address _to, uint256 _deedId) external;                    // removed payable\n    function transferFrom(address _from, address _to, uint256 _deedId) external; // removed payable\n    function approve(address _approved, uint256 _deedId) external;               // removed payable\n    // function setApprovalForAll(address _operateor, boolean _approved);        // removed payable\n    // function supportsInterface(bytes4 interfaceID) external view returns (bool);\n}\n\ninterface ERC721Metadata /* is ERC721 */ {\n    function name() external pure returns (string _name);\n    function symbol() external pure returns (string _symbol);\n    function deedUri(uint256 _deedId) external view returns (string _deedUri);\n}\n\ninterface ERC721Enumerable /* is ERC721 */ {\n    function totalSupply() external view returns (uint256 _count);\n    function deedByIndex(uint256 _index) external view returns (uint256 _deedId);\n    function countOfOwners() external view returns (uint256 _count);\n    // function ownerByIndex(uint256 _index) external view returns (address _owner);\n    // function deedOfOwnerByIndex(address _owner, uint256 _index) external view returns (uint256 _deedId);\n}\n\n\n// ----------------------------------------------------------------------------\n//\n// ERC721 Token\n//\n// ----------------------------------------------------------------------------\n\ncontract ERC721Token is ERC721Interface, ERC721Metadata, ERC721Enumerable, Owned {\n  \n  using SafeMath for uint;\n\n  uint public ownerCount = 0;\n  uint public deedCount = 0;\n  \n  mapping(address => uint) public balances;\n  mapping(uint => address) public mIdOwner;\n  mapping(uint => address) public mIdApproved;\n\n  // Required Functions ------------------------\n\n  /* Get the number of tokens held by an address */\n\n  function balanceOf(address _owner) external view returns (uint balance) {\n    balance = balances[_owner];\n  }\n\n  /* Get the owner of a certain token */\n\n  function ownerOf(uint _id) external view returns (address owner) {\n    owner = mIdOwner[_id];\n    require( owner != address(0x0) );\n  }\n\n  /* Transfer token */\n  \n  function transfer(address _to, uint _id) external {\n    // check ownership and address\n    require( msg.sender == mIdOwner[_id] );\n    require( _to != address(0x0) );\n\n    // transfer ownership\n    mIdOwner[_id] = _to;\n    mIdApproved[_id] = address(0x0);\n\n    // update balances\n    updateBalances(msg.sender, _to);\n\n    // register event\n    Transfer(msg.sender, _to, _id);\n  }\n\n  /* Transfer from */\n  \n  function transferFrom(address _from, address _to, uint _id) external {\n    // check if the sender has the right to transfer\n    require( _from == mIdOwner[_id] && mIdApproved[_id] == msg.sender );\n\n    // transfer ownership and reset approval (if any)\n    mIdOwner[_id] = _to;\n    mIdApproved[_id] = address(0x0);\n\n    // update balances\n    updateBalances(_from, _to);\n\n    // register event\n    Transfer(_from, _to, _id);\n  }\n\n  /* Approve token transfer (we do not make it payable) */\n  \n   function approve(address _approved, uint _id) external {\n       require( msg.sender == mIdOwner[_id] );\n       require( msg.sender != _approved );\n       mIdApproved[_id] = _approved;\n       Approval(msg.sender, _approved, _id);\n   }\n\n  // Metadata Functions ---------------\n\n\n  // Enumeration Functions ------------\n  \n  function totalSupply() external view returns (uint count) {\n    count = deedCount;\n  }\n\n  function deedByIndex(uint _index) external view returns (uint id) {\n    id = _index;\n    require( id < deedCount );\n  }  \n  \n  function countOfOwners() external view returns (uint count) {\n    count = ownerCount;\n  }\n  \n  // Internal functions ---------------\n  \n  function updateBalances(address _from, address _to) internal {\n    // process from (skip if minted)\n    if (_from != address(0x0)) {\n      balances[_from]--;\n      if (balances[_from] == 0) { ownerCount--; }\n    }\n    // process to\n    balances[_to]++;\n    if (balances[_to] == 1) { ownerCount++; }\n  }\n      \n}\n\n\n// ----------------------------------------------------------------------------\n//\n// ERC721 Token\n//\n// ----------------------------------------------------------------------------\n\ncontract GizerItems is ERC721Token {\n\n  /* Basic token data */\n  \n  string constant cName   = \"Gizer Item\";\n  string constant cSymbol = \"GZR721\";\n  \n  /* uuid information */\n\n  bytes32[] public code;\n  uint[] public weight;\n  uint public sumOfWeights;\n  \n  mapping(bytes32 => uint) public mCodeIndexPlus; // index + 1\n\n  /* Pseudo-randomisation variables */\n\n  uint public nonce = 0;\n  uint public lastRandom = 0;\n  \n  /* mapping from item index to uuid */\n  \n  mapping(uint => bytes32) mIdxIUuid;\n  \n  // Events ---------------------------\n  \n  event MintToken(address indexed minter, address indexed _owner, bytes32 indexed _code, uint _input);\n  \n  event CodeUpdate(uint8 indexed _type, bytes32 indexed _code, uint _weight, uint _sumOfWeights);\n  \n  // Basic Functions ------------------\n  \n  function GizerItems() public {\n    //\n    // load initial codes\n    // \n    addCode(\"74143b3842ff373eb111d12f1f497611\",  500);\n    addCode(\"564b40b09a8239fbbe400e9120b85386\", 1120);\n    addCode(\"457c0757d4bc3452853f9b3f48b70899\",  500);\n    addCode(\"785ddae3685c3c58bba1566c245e5c72\", 1120);\n    addCode(\"28a41f370fcc3b57b854ddd6529b8028\", 1120);\n    addCode(\"c1e8314b14dc3ec984b9409da3219371\", 1300);\n    addCode(\"eaba91e8e2ce35609c0f5ac992987af8\", 1300);\n    addCode(\"48ddee5a71e63d31aafb99adcaa54ed1\", 1120);\n    addCode(\"43db1b25e3a13e958eb7346e6f7b69b5\", 1300);\n    addCode(\"47e457e721d43d85ab974a0ec3a135a9\", 1300);\n    addCode(\"eea5776e85a73e398ae4f030949ac4b4\", 1300);\n    addCode(\"0a10e405769d3fd983a70cc3f6a8ac17\", 1300);\n    addCode(\"6ed505f443dd3f1fb834ce482fcf15d2\",  500);\n    addCode(\"8f7690bbb3053f4ba8548d97cf89c852\",  400);\n    addCode(\"69a1dc553de83504aabdb6858f4923d3\", 1300);\n    addCode(\"b51f0d6813a73ccb9c9bd741118d622b\", 1300);\n    addCode(\"70a34eb62d3234689bd56643cdfb514f\",  400);\n  }\n  \n  function () public payable { revert(); }\n  \n  // Information functions ------------\n\n  function name() external pure returns (string) {\n    return cName;\n  }\n  \n  function symbol() external pure returns (string) {\n    return cSymbol;\n  }\n  \n  function deedUri(uint _id) external view returns (string) {\n    return bytes32ToString(mIdxIUuid[_id]);\n  }\n  \n  function getUuid(uint _id) external view returns (string) {\n    require( _id < code.length );\n    return bytes32ToString(code[_id]);  \n  }\n\n  // Token Minting --------------------\n  \n  function mint(address _to) public onlyAdmin returns (uint idx) {\n    \n    // initial checks\n    require( sumOfWeights > 0 );\n    require( _to != address(0x0) );\n    require( _to != address(this) );\n\n    // get random uuid\n    bytes32 uuid32 = getRandomUuid();\n\n    // mint token\n    deedCount++;\n    idx = deedCount;\n    mIdxIUuid[idx] = uuid32;\n\n    // update balance and owner count\n    updateBalances(address(0x0), _to);\n    mIdOwner[idx] = _to;\n\n    // log event and return\n    MintToken(msg.sender, _to, uuid32, idx);\n  }\n  \n  // Random\n  \n  function getRandomUuid() internal returns (bytes32) {\n    // case where there is only one item type\n    if (code.length == 1) return code[0];\n\n    // more than one\n    updateRandom();\n    uint res = lastRandom % sumOfWeights;\n    uint cWeight = 0;\n    for (uint i = 0; i < code.length; i++) {\n      cWeight = cWeight + weight[i];\n      if (cWeight >= res) return code[i];\n    }\n\n    // we should never get here\n    revert();\n  }\n\n  function updateRandom() internal {\n    nonce++;\n    lastRandom = uint(keccak256(\n        nonce,\n        lastRandom,\n        block.blockhash(block.number - 1),\n        block.coinbase,\n        block.difficulty\n    ));\n  }\n  \n  // uuid functions -------------------\n  \n  /* add a new code + weight */\n  \n  function addCode(string _code, uint _weight) public onlyAdmin returns (bool success) {\n\n    bytes32 uuid32 = stringToBytes32(_code);\n\n    // weight posiitve & code not yet registered\n    require( _weight > 0 );\n    require( mCodeIndexPlus[uuid32] == 0 );\n\n    // add to end of array\n    uint idx = code.length;\n    code.push(uuid32);\n    weight.push(_weight);\n    mCodeIndexPlus[uuid32] = idx + 1;\n\n    // update sum of weights\n    sumOfWeights = sumOfWeights.add(_weight);\n\n    // register event and return\n    CodeUpdate(1, uuid32, _weight, sumOfWeights);\n    return true;\n  }\n  \n  /* update the weight of an existing code */\n  \n  function updateCodeWeight(string _code, uint _weight) public onlyAdmin returns (bool success) {\n\n    bytes32 uuid32 = stringToBytes32(_code);\n\n    // weight positive & code must be registered\n    require( _weight > 0 );\n    require( mCodeIndexPlus[uuid32] > 0 );\n\n    // update weight and sum of weights\n    uint idx = mCodeIndexPlus[uuid32] - 1;\n    uint oldWeight = weight[idx];\n    weight[idx] = _weight;\n    sumOfWeights = sumOfWeights.sub(oldWeight).add(_weight);\n\n    // register event and return\n    CodeUpdate(2, uuid32, _weight, sumOfWeights);\n    return true;\n  }\n  \n  /* remove an existing code */\n  \n  function removeCode(string _code) public onlyAdmin returns (bool success) {\n\n    bytes32 uuid32 = stringToBytes32(_code);\n\n    // code must be registered\n    require( mCodeIndexPlus[uuid32] > 0 );\n\n    // index of code to be deleted\n    uint idx = mCodeIndexPlus[uuid32] - 1;\n    uint idxLast = code.length - 1;\n\n    // update sum of weights and remove mapping\n    sumOfWeights = sumOfWeights.sub(weight[idx]);\n    mCodeIndexPlus[uuid32] = 0;\n\n    if (idx != idxLast) {\n      // if we are not deleting the last element:\n      // move last element to index of deleted element\n      code[idx] = code[idxLast];\n      weight[idx] = weight[idxLast];\n      mCodeIndexPlus[code[idxLast]] = idx;\n    }\n    // delete last element of arrays\n    delete code[idxLast];\n    code.length--;\n    delete weight[idxLast];\n    weight.length--;\n\n    // register event and return\n    CodeUpdate(3, uuid32, 0, sumOfWeights);\n    return true;\n  }\n\n  /* Transfer out any accidentally sent ERC20 tokens */\n\n  function transferAnyERC20Token(address tokenAddress, uint amount) public onlyOwner returns (bool success) {\n      return ERC20Interface(tokenAddress).transfer(owner, amount);\n  }\n  \n  // Utility functions ----------------\n\n  /* https://ethereum.stackexchange.com/questions/9142/how-to-convert-a-string-to-bytes32 */\n  \n  function stringToBytes32(string memory source) public pure returns (bytes32 result) {\n    bytes memory tempEmptyStringTest = bytes(source);\n    if (tempEmptyStringTest.length == 0) {\n        return 0x0;\n    }\n\n    assembly {\n        result := mload(add(source, 32))\n    }\n  }\n  \n  /* https://ethereum.stackexchange.com/questions/2519/how-to-convert-a-bytes32-to-string */\n\n  function bytes32ToString(bytes32 x) public pure returns (string) {\n    bytes memory bytesString = new bytes(32);\n    uint charCount = 0;\n    for (uint j = 0; j < 32; j++) {\n      byte char = byte(bytes32(uint(x) * 2 ** (8 * j)));\n      if (char != 0) {\n        bytesString[charCount] = char;\n        charCount++;\n      }\n    }\n    bytes memory bytesStringTrimmed = new bytes(charCount);\n    for (j = 0; j < charCount; j++) {\n      bytesStringTrimmed[j] = bytesString[j];\n    }\n    return string(bytesStringTrimmed);\n  }\n  \n}",
  "sourcePath": "/home/jordan/code/gizer/webTest/contracts/Gzr.sol",
  "compiler": {
    "name": "solc",
    "version": "0.4.19+commit.c4cbbb05.Emscripten.clang"
  },
  "schemaVersion": "1.0.1",
  "updatedAt": "2018-03-09T03:29:22.407Z"
}