{
  "contractName": "GZRItems",
  "abi": [
    {
      "constant": true,
      "inputs": [],
      "name": "name",
      "outputs": [
        {
          "name": "",
          "type": "string"
        }
      ],
      "payable": false,
      "stateMutability": "view",
      "type": "function"
    },
    {
      "constant": false,
      "inputs": [
        {
          "name": "_spender",
          "type": "address"
        },
        {
          "name": "_amount",
          "type": "uint256"
        }
      ],
      "name": "approve",
      "outputs": [
        {
          "name": "success",
          "type": "bool"
        }
      ],
      "payable": false,
      "stateMutability": "nonpayable",
      "type": "function"
    },
    {
      "constant": true,
      "inputs": [],
      "name": "totalSupply",
      "outputs": [
        {
          "name": "",
          "type": "uint256"
        }
      ],
      "payable": false,
      "stateMutability": "view",
      "type": "function"
    },
    {
      "constant": false,
      "inputs": [
        {
          "name": "_from",
          "type": "address"
        },
        {
          "name": "_to",
          "type": "address"
        },
        {
          "name": "_amount",
          "type": "uint256"
        }
      ],
      "name": "transferFrom",
      "outputs": [
        {
          "name": "success",
          "type": "bool"
        }
      ],
      "payable": false,
      "stateMutability": "nonpayable",
      "type": "function"
    },
    {
      "constant": true,
      "inputs": [],
      "name": "etherReceived",
      "outputs": [
        {
          "name": "",
          "type": "uint256"
        }
      ],
      "payable": false,
      "stateMutability": "view",
      "type": "function"
    },
    {
      "constant": true,
      "inputs": [],
      "name": "decimals",
      "outputs": [
        {
          "name": "",
          "type": "uint8"
        }
      ],
      "payable": false,
      "stateMutability": "view",
      "type": "function"
    },
    {
      "constant": false,
      "inputs": [
        {
          "name": "_wallet",
          "type": "address"
        }
      ],
      "name": "setAdminWallet",
      "outputs": [],
      "payable": false,
      "stateMutability": "nonpayable",
      "type": "function"
    },
    {
      "constant": true,
      "inputs": [],
      "name": "adminWallet",
      "outputs": [
        {
          "name": "",
          "type": "address"
        }
      ],
      "payable": false,
      "stateMutability": "view",
      "type": "function"
    },
    {
      "constant": true,
      "inputs": [],
      "name": "MIN_CONTRIBUTION",
      "outputs": [
        {
          "name": "",
          "type": "uint256"
        }
      ],
      "payable": false,
      "stateMutability": "view",
      "type": "function"
    },
    {
      "constant": true,
      "inputs": [],
      "name": "tokensIssuedOwner",
      "outputs": [
        {
          "name": "",
          "type": "uint256"
        }
      ],
      "payable": false,
      "stateMutability": "view",
      "type": "function"
    },
    {
      "constant": true,
      "inputs": [],
      "name": "tokensIssuedCrowd",
      "outputs": [
        {
          "name": "",
          "type": "uint256"
        }
      ],
      "payable": false,
      "stateMutability": "view",
      "type": "function"
    },
    {
      "constant": true,
      "inputs": [],
      "name": "TOKEN_SUPPLY_CROWD",
      "outputs": [
        {
          "name": "",
          "type": "uint256"
        }
      ],
      "payable": false,
      "stateMutability": "view",
      "type": "function"
    },
    {
      "constant": true,
      "inputs": [],
      "name": "wallet",
      "outputs": [
        {
          "name": "",
          "type": "address"
        }
      ],
      "payable": false,
      "stateMutability": "view",
      "type": "function"
    },
    {
      "constant": true,
      "inputs": [
        {
          "name": "",
          "type": "address"
        }
      ],
      "name": "tokensReceived",
      "outputs": [
        {
          "name": "",
          "type": "uint256"
        }
      ],
      "payable": false,
      "stateMutability": "view",
      "type": "function"
    },
    {
      "constant": true,
      "inputs": [
        {
          "name": "_owner",
          "type": "address"
        }
      ],
      "name": "balanceOf",
      "outputs": [
        {
          "name": "balance",
          "type": "uint256"
        }
      ],
      "payable": false,
      "stateMutability": "view",
      "type": "function"
    },
    {
      "constant": true,
      "inputs": [],
      "name": "availableToMint",
      "outputs": [
        {
          "name": "available",
          "type": "uint256"
        }
      ],
      "payable": false,
      "stateMutability": "view",
      "type": "function"
    },
    {
      "constant": true,
      "inputs": [],
      "name": "redemptionWallet",
      "outputs": [
        {
          "name": "",
          "type": "address"
        }
      ],
      "payable": false,
      "stateMutability": "view",
      "type": "function"
    },
    {
      "constant": false,
      "inputs": [],
      "name": "acceptOwnership",
      "outputs": [],
      "payable": false,
      "stateMutability": "nonpayable",
      "type": "function"
    },
    {
      "constant": true,
      "inputs": [],
      "name": "CENTS_PER_TOKEN",
      "outputs": [
        {
          "name": "",
          "type": "uint256"
        }
      ],
      "payable": false,
      "stateMutability": "view",
      "type": "function"
    },
    {
      "constant": true,
      "inputs": [],
      "name": "ethCents",
      "outputs": [
        {
          "name": "",
          "type": "uint256"
        }
      ],
      "payable": false,
      "stateMutability": "view",
      "type": "function"
    },
    {
      "constant": true,
      "inputs": [],
      "name": "atNow",
      "outputs": [
        {
          "name": "",
          "type": "uint256"
        }
      ],
      "payable": false,
      "stateMutability": "view",
      "type": "function"
    },
    {
      "constant": true,
      "inputs": [],
      "name": "tokensIssuedTotal",
      "outputs": [
        {
          "name": "",
          "type": "uint256"
        }
      ],
      "payable": false,
      "stateMutability": "view",
      "type": "function"
    },
    {
      "constant": true,
      "inputs": [],
      "name": "owner",
      "outputs": [
        {
          "name": "",
          "type": "address"
        }
      ],
      "payable": false,
      "stateMutability": "view",
      "type": "function"
    },
    {
      "constant": false,
      "inputs": [
        {
          "name": "_wallet",
          "type": "address"
        }
      ],
      "name": "setRedemptionWallet",
      "outputs": [],
      "payable": false,
      "stateMutability": "nonpayable",
      "type": "function"
    },
    {
      "constant": true,
      "inputs": [],
      "name": "DATE_ICO_START",
      "outputs": [
        {
          "name": "",
          "type": "uint256"
        }
      ],
      "payable": false,
      "stateMutability": "view",
      "type": "function"
    },
    {
      "constant": true,
      "inputs": [],
      "name": "symbol",
      "outputs": [
        {
          "name": "",
          "type": "string"
        }
      ],
      "payable": false,
      "stateMutability": "view",
      "type": "function"
    },
    {
      "constant": false,
      "inputs": [
        {
          "name": "_addresses",
          "type": "address[]"
        },
        {
          "name": "_amounts",
          "type": "uint256[]"
        }
      ],
      "name": "transferMultiple",
      "outputs": [],
      "payable": false,
      "stateMutability": "nonpayable",
      "type": "function"
    },
    {
      "constant": true,
      "inputs": [
        {
          "name": "",
          "type": "address"
        }
      ],
      "name": "etherContributed",
      "outputs": [
        {
          "name": "",
          "type": "uint256"
        }
      ],
      "payable": false,
      "stateMutability": "view",
      "type": "function"
    },
    {
      "constant": false,
      "inputs": [
        {
          "name": "_to",
          "type": "address"
        },
        {
          "name": "_amount",
          "type": "uint256"
        }
      ],
      "name": "transfer",
      "outputs": [
        {
          "name": "success",
          "type": "bool"
        }
      ],
      "payable": false,
      "stateMutability": "nonpayable",
      "type": "function"
    },
    {
      "constant": true,
      "inputs": [],
      "name": "TOKEN_SUPPLY_OWNER",
      "outputs": [
        {
          "name": "",
          "type": "uint256"
        }
      ],
      "payable": false,
      "stateMutability": "view",
      "type": "function"
    },
    {
      "constant": true,
      "inputs": [],
      "name": "DATE_ICO_END",
      "outputs": [
        {
          "name": "",
          "type": "uint256"
        }
      ],
      "payable": false,
      "stateMutability": "view",
      "type": "function"
    },
    {
      "constant": true,
      "inputs": [],
      "name": "TOKEN_SUPPLY_TOTAL",
      "outputs": [
        {
          "name": "",
          "type": "uint256"
        }
      ],
      "payable": false,
      "stateMutability": "view",
      "type": "function"
    },
    {
      "constant": true,
      "inputs": [],
      "name": "newOwner",
      "outputs": [
        {
          "name": "",
          "type": "address"
        }
      ],
      "payable": false,
      "stateMutability": "view",
      "type": "function"
    },
    {
      "constant": false,
      "inputs": [
        {
          "name": "tokenAddress",
          "type": "address"
        },
        {
          "name": "amount",
          "type": "uint256"
        }
      ],
      "name": "transferAnyERC20Token",
      "outputs": [
        {
          "name": "success",
          "type": "bool"
        }
      ],
      "payable": false,
      "stateMutability": "nonpayable",
      "type": "function"
    },
    {
      "constant": true,
      "inputs": [
        {
          "name": "_owner",
          "type": "address"
        },
        {
          "name": "_spender",
          "type": "address"
        }
      ],
      "name": "allowance",
      "outputs": [
        {
          "name": "remaining",
          "type": "uint256"
        }
      ],
      "payable": false,
      "stateMutability": "view",
      "type": "function"
    },
    {
      "constant": false,
      "inputs": [
        {
          "name": "_wallet",
          "type": "address"
        }
      ],
      "name": "setWallet",
      "outputs": [],
      "payable": false,
      "stateMutability": "nonpayable",
      "type": "function"
    },
    {
      "constant": false,
      "inputs": [
        {
          "name": "_cents",
          "type": "uint256"
        }
      ],
      "name": "setEthCents",
      "outputs": [],
      "payable": false,
      "stateMutability": "nonpayable",
      "type": "function"
    },
    {
      "constant": false,
      "inputs": [
        {
          "name": "_account",
          "type": "address"
        },
        {
          "name": "_tokens",
          "type": "uint256"
        }
      ],
      "name": "mintTokens",
      "outputs": [],
      "payable": false,
      "stateMutability": "nonpayable",
      "type": "function"
    },
    {
      "constant": false,
      "inputs": [
        {
          "name": "_newOwner",
          "type": "address"
        }
      ],
      "name": "transferOwnership",
      "outputs": [],
      "payable": false,
      "stateMutability": "nonpayable",
      "type": "function"
    },
    {
      "constant": true,
      "inputs": [],
      "name": "tradeable",
      "outputs": [
        {
          "name": "",
          "type": "bool"
        }
      ],
      "payable": false,
      "stateMutability": "view",
      "type": "function"
    },
    {
      "inputs": [],
      "payable": false,
      "stateMutability": "nonpayable",
      "type": "constructor"
    },
    {
      "payable": true,
      "stateMutability": "payable",
      "type": "fallback"
    },
    {
      "anonymous": false,
      "inputs": [
        {
          "indexed": false,
          "name": "_newWallet",
          "type": "address"
        }
      ],
      "name": "WalletUpdated",
      "type": "event"
    },
    {
      "anonymous": false,
      "inputs": [
        {
          "indexed": false,
          "name": "_newAdminWallet",
          "type": "address"
        }
      ],
      "name": "AdminWalletUpdated",
      "type": "event"
    },
    {
      "anonymous": false,
      "inputs": [
        {
          "indexed": false,
          "name": "_newRedemptionWallet",
          "type": "address"
        }
      ],
      "name": "RedemptionWalletUpdated",
      "type": "event"
    },
    {
      "anonymous": false,
      "inputs": [
        {
          "indexed": false,
          "name": "_cents",
          "type": "uint256"
        }
      ],
      "name": "EthCentsUpdated",
      "type": "event"
    },
    {
      "anonymous": false,
      "inputs": [
        {
          "indexed": true,
          "name": "_recipient",
          "type": "address"
        },
        {
          "indexed": false,
          "name": "_tokens",
          "type": "uint256"
        },
        {
          "indexed": false,
          "name": "_ether",
          "type": "uint256"
        }
      ],
      "name": "TokensIssuedCrowd",
      "type": "event"
    },
    {
      "anonymous": false,
      "inputs": [
        {
          "indexed": true,
          "name": "_recipient",
          "type": "address"
        },
        {
          "indexed": false,
          "name": "_tokens",
          "type": "uint256"
        }
      ],
      "name": "TokensIssuedOwner",
      "type": "event"
    },
    {
      "anonymous": false,
      "inputs": [
        {
          "indexed": true,
          "name": "_from",
          "type": "address"
        },
        {
          "indexed": true,
          "name": "_to",
          "type": "address"
        }
      ],
      "name": "OwnershipTransferProposed",
      "type": "event"
    },
    {
      "anonymous": false,
      "inputs": [
        {
          "indexed": true,
          "name": "_to",
          "type": "address"
        }
      ],
      "name": "OwnershipTransferred",
      "type": "event"
    },
    {
      "anonymous": false,
      "inputs": [
        {
          "indexed": true,
          "name": "_from",
          "type": "address"
        },
        {
          "indexed": true,
          "name": "_to",
          "type": "address"
        },
        {
          "indexed": false,
          "name": "_value",
          "type": "uint256"
        }
      ],
      "name": "Transfer",
      "type": "event"
    },
    {
      "anonymous": false,
      "inputs": [
        {
          "indexed": true,
          "name": "_owner",
          "type": "address"
        },
        {
          "indexed": true,
          "name": "_spender",
          "type": "address"
        },
        {
          "indexed": false,
          "name": "_value",
          "type": "uint256"
        }
      ],
      "name": "Approval",
      "type": "event"
    }
  ],
  "bytecode": "60606040526000600255635a216060600855635a43a7606009556000600a556000600b556000600c556000600d556000600e556000600f5562ed4e00600954016010556000601160006101000a81548160ff0219169083151502179055506000601160016101000a81548160ff02191690831515021790555060006012556000601355341561008d57600080fd5b336000806101000a81548173ffffffffffffffffffffffffffffffffffffffff021916908373ffffffffffffffffffffffffffffffffffffffff160217905550620f42408060640202620f42408060460202620f424080600f0202620f424080600f020201011415156100ff57600080fd5b6000809054906101000a900473ffffffffffffffffffffffffffffffffffffffff16600560006101000a81548173ffffffffffffffffffffffffffffffffffffffff021916908373ffffffffffffffffffffffffffffffffffffffff1602179055506000809054906101000a900473ffffffffffffffffffffffffffffffffffffffff16600660006101000a81548173ffffffffffffffffffffffffffffffffffffffff021916908373ffffffffffffffffffffffffffffffffffffffff1602179055506000809054906101000a900473ffffffffffffffffffffffffffffffffffffffff16600760006101000a81548173ffffffffffffffffffffffffffffffffffffffff021916908373ffffffffffffffffffffffffffffffffffffffff16021790555061465880620002356000396000f300606060405260043610610390576000357c0100000000000000000000000000000000000000000000000000000000900463ffffffff168063021ba8f81461039a578063023bb74d146103c3578063034f9774146103ec57806306fdde0314610425578063095ea7b3146104b35780630aa900491461050d57806318160ddd1461053657806323b872dd1461055f5780632960109d146105d85780632b17355e146106015780632b5d154f1461064e5780632d9ec34914610677578063313ce567146106a05780633498cbe5146106cf578063356e2927146106f857806336b7371a14610725578063386e34411461074e57806340650c9114610777578063406c92b5146107a0578063491274a8146107c95780634b75f046146107f25780634d7569ac1461081b578063521eb2731461084457806355f92d23146108995780635ef79434146108db57806368a29a311461090457806370a08231146109515780637619317b1461099e57806378665789146109f357806379ba509714610a2c578063810e78ab14610a4157806381aea66814610a5657806384ef077814610a7f5780638da5cb5b14610aa85780638e825be014610afd5780638fe6677d14610b3f5780639317cb3714610b99578063938a465e14610bc257806393f84cfe14610beb57806394d95f8f14610c2d578063954056f714610c5657806395c0fb1c14610c8f57806395d89b4114610cb85780639ae697bf14610d465780639b19251a14610d935780639cbd850514610de45780639e07932714610e105780639f509ab114610e39578063a03fb4c014610e62578063a05fccef14610e77578063a1326c2b14610eb9578063a3eb643614610ee2578063a9059cbb14610f0b578063ad38d6f114610f65578063ada0157914610fba578063b63e93dc14610fe3578063bb57937f14610ff8578063cce4bd5214611021578063cef9db6d14611036578063cf2d5eb41461105f578063d13cb9e314611088578063d1dfee35146110b1578063d4ee1d90146110da578063d8c26a501461112f578063dc39d06d1461117c578063dd62ed3e146111d6578063deaa59df14611242578063df20b1191461127b578063dfe3a52b146112c8578063e00cb0bc146112f1578063e02568351461131a578063e3fe974014611367578063e43252d714611394578063ec16d076146113cd578063f21869c5146113f6578063f2fde38b1461141f578063f5ac9db614611458578063f83b079514611485575b6103986114ae565b005b34156103a557600080fd5b6103ad611720565b6040518082815260200191505060405180910390f35b34156103ce57600080fd5b6103d6611727565b6040518082815260200191505060405180910390f35b34156103f757600080fd5b610423600480803573ffffffffffffffffffffffffffffffffffffffff1690602001909190505061172f565b005b341561043057600080fd5b610438611831565b6040518080602001828103825283818151815260200191508051906020019080838360005b8381101561047857808201518184015260208101905061045d565b50505050905090810190601f1680156104a55780820380516001836020036101000a031916815260200191505b509250505060405180910390f35b34156104be57600080fd5b6104f3600480803573ffffffffffffffffffffffffffffffffffffffff1690602001909190803590602001909190505061186a565b604051808215151515815260200191505060405180910390f35b341561051857600080fd5b6105206119aa565b6040518082815260200191505060405180910390f35b341561054157600080fd5b6105496119b0565b6040518082815260200191505060405180910390f35b341561056a57600080fd5b6105be600480803573ffffffffffffffffffffffffffffffffffffffff1690602001909190803573ffffffffffffffffffffffffffffffffffffffff169060200190919080359060200190919050506119ba565b604051808215151515815260200191505060405180910390f35b34156105e357600080fd5b6105eb611a53565b6040518082815260200191505060405180910390f35b341561060c57600080fd5b610638600480803573ffffffffffffffffffffffffffffffffffffffff16906020019091905050611a59565b6040518082815260200191505060405180910390f35b341561065957600080fd5b610661611a71565b6040518082815260200191505060405180910390f35b341561068257600080fd5b61068a611a7c565b6040518082815260200191505060405180910390f35b34156106ab57600080fd5b6106b3611a87565b604051808260ff1660ff16815260200191505060405180910390f35b34156106da57600080fd5b6106e2611a8c565b6040518082815260200191505060405180910390f35b341561070357600080fd5b61070b611a99565b604051808215151515815260200191505060405180910390f35b341561073057600080fd5b610738611aac565b6040518082815260200191505060405180910390f35b341561075957600080fd5b610761611ab2565b6040518082815260200191505060405180910390f35b341561078257600080fd5b61078a611ab8565b6040518082815260200191505060405180910390f35b34156107ab57600080fd5b6107b3611ac3565b6040518082815260200191505060405180910390f35b34156107d457600080fd5b6107dc611ad0565b6040518082815260200191505060405180910390f35b34156107fd57600080fd5b610805611ad6565b6040518082815260200191505060405180910390f35b341561082657600080fd5b61082e611adc565b6040518082815260200191505060405180910390f35b341561084f57600080fd5b610857611ae8565b604051808273ffffffffffffffffffffffffffffffffffffffff1673ffffffffffffffffffffffffffffffffffffffff16815260200191505060405180910390f35b34156108a457600080fd5b6108d9600480803573ffffffffffffffffffffffffffffffffffffffff16906020019091908035906020019091905050611b0e565b005b34156108e657600080fd5b6108ee611c43565b6040518082815260200191505060405180910390f35b341561090f57600080fd5b61093b600480803573ffffffffffffffffffffffffffffffffffffffff16906020019091905050611c4b565b6040518082815260200191505060405180910390f35b341561095c57600080fd5b610988600480803573ffffffffffffffffffffffffffffffffffffffff16906020019091905050611c63565b6040518082815260200191505060405180910390f35b34156109a957600080fd5b6109b1611cac565b604051808273ffffffffffffffffffffffffffffffffffffffff1673ffffffffffffffffffffffffffffffffffffffff16815260200191505060405180910390f35b34156109fe57600080fd5b610a2a600480803573ffffffffffffffffffffffffffffffffffffffff16906020019091905050611cd2565b005b3415610a3757600080fd5b610a3f61208d565b005b3415610a4c57600080fd5b610a546121ea565b005b3415610a6157600080fd5b610a696122fc565b6040518082815260200191505060405180910390f35b3415610a8a57600080fd5b610a92612304565b6040518082815260200191505060405180910390f35b3415610ab357600080fd5b610abb61230a565b604051808273ffffffffffffffffffffffffffffffffffffffff1673ffffffffffffffffffffffffffffffffffffffff16815260200191505060405180910390f35b3415610b0857600080fd5b610b3d600480803573ffffffffffffffffffffffffffffffffffffffff1690602001909190803590602001909190505061232f565b005b3415610b4a57600080fd5b610b976004808035906020019082018035906020019080806020026020016040519081016040528093929190818152602001838360200280828437820191505050505050919050506125c5565b005b3415610ba457600080fd5b610bac612772565b6040518082815260200191505060405180910390f35b3415610bcd57600080fd5b610bd5612777565b6040518082815260200191505060405180910390f35b3415610bf657600080fd5b610c2b600480803573ffffffffffffffffffffffffffffffffffffffff16906020019091908035906020019091905050612782565b005b3415610c3857600080fd5b610c40612a5b565b6040518082815260200191505060405180910390f35b3415610c6157600080fd5b610c8d600480803573ffffffffffffffffffffffffffffffffffffffff16906020019091905050612a68565b005b3415610c9a57600080fd5b610ca2612b6a565b6040518082815260200191505060405180910390f35b3415610cc357600080fd5b610ccb612b70565b6040518080602001828103825283818151815260200191508051906020019080838360005b83811015610d0b578082015181840152602081019050610cf0565b50505050905090810190601f168015610d385780820380516001836020036101000a031916815260200191505b509250505060405180910390f35b3415610d5157600080fd5b610d7d600480803573ffffffffffffffffffffffffffffffffffffffff16906020019091905050612ba9565b6040518082815260200191505060405180910390f35b3415610d9e57600080fd5b610dca600480803573ffffffffffffffffffffffffffffffffffffffff16906020019091905050612cac565b604051808215151515815260200191505060405180910390f35b3415610def57600080fd5b610e0e6004808035906020019091908035906020019091905050612ccc565b005b3415610e1b57600080fd5b610e23612de4565b6040518082815260200191505060405180910390f35b3415610e4457600080fd5b610e4c612dea565b6040518082815260200191505060405180910390f35b3415610e6d57600080fd5b610e75612df7565b005b3415610e8257600080fd5b610eb7600480803590602001908201803590602001919091929080359060200190820180359060200191909192905050612e8a565b005b3415610ec457600080fd5b610ecc612fa4565b6040518082815260200191505060405180910390f35b3415610eed57600080fd5b610ef5612faf565b6040518082815260200191505060405180910390f35b3415610f1657600080fd5b610f4b600480803573ffffffffffffffffffffffffffffffffffffffff16906020019091908035906020019091905050612fba565b604051808215151515815260200191505060405180910390f35b3415610f7057600080fd5b610f78613051565b604051808273ffffffffffffffffffffffffffffffffffffffff1673ffffffffffffffffffffffffffffffffffffffff16815260200191505060405180910390f35b3415610fc557600080fd5b610fcd613077565b6040518082815260200191505060405180910390f35b3415610fee57600080fd5b610ff6613083565b005b341561100357600080fd5b61100b613175565b6040518082815260200191505060405180910390f35b341561102c57600080fd5b61103461317b565b005b341561104157600080fd5b611049613446565b6040518082815260200191505060405180910390f35b341561106a57600080fd5b611072613452565b6040518082815260200191505060405180910390f35b341561109357600080fd5b61109b61345e565b6040518082815260200191505060405180910390f35b34156110bc57600080fd5b6110c4613465565b6040518082815260200191505060405180910390f35b34156110e557600080fd5b6110ed61346b565b604051808273ffffffffffffffffffffffffffffffffffffffff1673ffffffffffffffffffffffffffffffffffffffff16815260200191505060405180910390f35b341561113a57600080fd5b611166600480803573ffffffffffffffffffffffffffffffffffffffff16906020019091905050613491565b6040518082815260200191505060405180910390f35b341561118757600080fd5b6111bc600480803573ffffffffffffffffffffffffffffffffffffffff169060200190919080359060200190919050506134a9565b604051808215151515815260200191505060405180910390f35b34156111e157600080fd5b61122c600480803573ffffffffffffffffffffffffffffffffffffffff1690602001909190803573ffffffffffffffffffffffffffffffffffffffff169060200190919050506135f5565b6040518082815260200191505060405180910390f35b341561124d57600080fd5b611279600480803573ffffffffffffffffffffffffffffffffffffffff1690602001909190505061367c565b005b341561128657600080fd5b6112b2600480803573ffffffffffffffffffffffffffffffffffffffff169060200190919050506137ba565b6040518082815260200191505060405180910390f35b34156112d357600080fd5b6112db6137d2565b6040518082815260200191505060405180910390f35b34156112fc57600080fd5b6113046137d8565b6040518082815260200191505060405180910390f35b341561132557600080fd5b611351600480803573ffffffffffffffffffffffffffffffffffffffff169060200190919050506137de565b6040518082815260200191505060405180910390f35b341561137257600080fd5b61137a6137f6565b604051808215151515815260200191505060405180910390f35b341561139f57600080fd5b6113cb600480803573ffffffffffffffffffffffffffffffffffffffff1690602001909190505061381d565b005b34156113d857600080fd5b6113e061397e565b6040518082815260200191505060405180910390f35b341561140157600080fd5b611409613985565b6040518082815260200191505060405180910390f35b341561142a57600080fd5b611456600480803573ffffffffffffffffffffffffffffffffffffffff1690602001909190505061398b565b005b341561146357600080fd5b61146b613b3d565b604051808215151515815260200191505060405180910390f35b341561149057600080fd5b611498613b50565b6040518082815260200191505060405180910390f35b6000806000806114bc6122fc565b9350600092506000915060009050601160009054906101000a900460ff161515156114e657600080fd5b662386f26fc100003410158015611506575068b4aeaab10258f400003411155b151561151157600080fd5b635a143160841180156115275750635a1ac8e084105b156115355760019250611552565b60085484118015611547575060095484105b1561155157600191505b5b828061155b5750815b151561156657600080fd5b821561165a5768b4aeaab10258f4000061158b34600b54613b5c90919063ffffffff16565b1115151561159857600080fd5b606460125410156115d757670de0b6b3a76400006115c634620f424061047e02613b7590919063ffffffff16565b8115156115cf57fe5b049050611648565b6101f4601254101561161757670de0b6b3a764000061160634620f424061044c02613b7590919063ffffffff16565b81151561160f57fe5b049050611647565b670de0b6b3a764000061163a34620f424061043302613b7590919063ffffffff16565b81151561164357fe5b0490505b5b60016012600082825401925050819055505b811561170d576101f460135410156116a057670de0b6b3a764000061168f34620f424061041a02613b7590919063ffffffff16565b81151561169857fe5b0490506116d0565b670de0b6b3a76400006116c334620f42406103e802613b7590919063ffffffff16565b8115156116cc57fe5b0490505b620f424080604602026116ee82600c54613b5c90919063ffffffff16565b111515156116fb57600080fd5b60016013600082825401925050819055505b61171a3382346000613ba3565b50505050565b62ed4e0081565b635a14316081565b6000809054906101000a900473ffffffffffffffffffffffffffffffffffffffff1673ffffffffffffffffffffffffffffffffffffffff163373ffffffffffffffffffffffffffffffffffffffff1614151561178a57600080fd5b80600760006101000a81548173ffffffffffffffffffffffffffffffffffffffff021916908373ffffffffffffffffffffffffffffffffffffffff1602179055507f48d6047c166dfc19c77ac607c60c41a6a91912c594e719d6c0b3852de6ef5e8c81604051808273ffffffffffffffffffffffffffffffffffffffff1673ffffffffffffffffffffffffffffffffffffffff16815260200191505060405180910390a150565b6040805190810160405280601281526020017f47697a65722047616d696e6720546f6b656e000000000000000000000000000081525081565b600081600360003373ffffffffffffffffffffffffffffffffffffffff1673ffffffffffffffffffffffffffffffffffffffff16815260200190815260200160002054101515156118ba57600080fd5b81600460003373ffffffffffffffffffffffffffffffffffffffff1673ffffffffffffffffffffffffffffffffffffffff16815260200190815260200160002060008573ffffffffffffffffffffffffffffffffffffffff1673ffffffffffffffffffffffffffffffffffffffff168152602001908152602001600020819055508273ffffffffffffffffffffffffffffffffffffffff163373ffffffffffffffffffffffffffffffffffffffff167f8c5be1e5ebec7d5bd14f71427d1e84f3dd0314c0f7b2291e5b200ac8c7c3b925846040518082815260200191505060405180910390a36001905092915050565b60135481565b6000600254905090565b6000601160019054906101000a900460ff1615156119d757600080fd5b6119e084612ba9565b611a3283600360008873ffffffffffffffffffffffffffffffffffffffff1673ffffffffffffffffffffffffffffffffffffffff168152602001908152602001600020546140a690919063ffffffff16565b10151515611a3f57600080fd5b611a4a8484846140bf565b90509392505050565b600b5481565b60186020528060005260406000206000915090505481565b620f42406103e80281565b620f42406104330281565b600681565b68120d4da7b0bd14000081565b601160009054906101000a900460ff1681565b600d5481565b600f5481565b662386f26fc1000081565b683635c9adc5dea0000081565b60125481565b600c5481565b620f4240806046020281565b600560009054906101000a900473ffffffffffffffffffffffffffffffffffffffff1681565b60008060009054906101000a900473ffffffffffffffffffffffffffffffffffffffff1673ffffffffffffffffffffffffffffffffffffffff163373ffffffffffffffffffffffffffffffffffffffff16141515611b6b57600080fd5b600073ffffffffffffffffffffffffffffffffffffffff168373ffffffffffffffffffffffffffffffffffffffff1614151515611ba757600080fd5b635a143160611bb46122fc565b101515611bc057600080fd5b662386f26fc100008210151515611bd657600080fd5b683635c9adc5dea00000611bf583600a54613b5c90919063ffffffff16565b11151515611c0257600080fd5b670de0b6b3a7640000611c2583620f424061047e02613b7590919063ffffffff16565b811515611c2e57fe5b049050611c3e8382846001613ba3565b505050565b635a1ac8e081565b60166020528060005260406000206000915090505481565b6000600360008373ffffffffffffffffffffffffffffffffffffffff1673ffffffffffffffffffffffffffffffffffffffff168152602001908152602001600020549050919050565b600660009054906101000a900473ffffffffffffffffffffffffffffffffffffffff1681565b60008060009054906101000a900473ffffffffffffffffffffffffffffffffffffffff1673ffffffffffffffffffffffffffffffffffffffff163373ffffffffffffffffffffffffffffffffffffffff16141515611d2f57600080fd5b601160009054906101000a900460ff161515611d4a57600080fd5b62278d0060095401611d5a6122fc565b111515611d6657600080fd5b601460008373ffffffffffffffffffffffffffffffffffffffff1673ffffffffffffffffffffffffffffffffffffffff16815260200190815260200160002060009054906101000a900460ff16151515611dbf57600080fd5b601760008373ffffffffffffffffffffffffffffffffffffffff1673ffffffffffffffffffffffffffffffffffffffff1681526020019081526020016000205490506000601760008473ffffffffffffffffffffffffffffffffffffffff1673ffffffffffffffffffffffffffffffffffffffff16815260200190815260200160002081905550611e9881600360008573ffffffffffffffffffffffffffffffffffffffff1673ffffffffffffffffffffffffffffffffffffffff168152602001908152602001600020546140a690919063ffffffff16565b600360008473ffffffffffffffffffffffffffffffffffffffff1673ffffffffffffffffffffffffffffffffffffffff16815260200190815260200160002081905550611f4f8160036000600560009054906101000a900473ffffffffffffffffffffffffffffffffffffffff1673ffffffffffffffffffffffffffffffffffffffff1673ffffffffffffffffffffffffffffffffffffffff16815260200190815260200160002054613b5c90919063ffffffff16565b60036000600560009054906101000a900473ffffffffffffffffffffffffffffffffffffffff1673ffffffffffffffffffffffffffffffffffffffff1673ffffffffffffffffffffffffffffffffffffffff16815260200190815260200160002081905550600560009054906101000a900473ffffffffffffffffffffffffffffffffffffffff1673ffffffffffffffffffffffffffffffffffffffff168273ffffffffffffffffffffffffffffffffffffffff167fddf252ad1be2c89b69c2b068fc378daa952ba7f163c4a11628f55a4df523b3ef836040518082815260200191505060405180910390a38173ffffffffffffffffffffffffffffffffffffffff167f4feb567695c35efbae9db5fe891406a743ce9107a104fb4e8223cf808a39abc0826040518082815260200191505060405180910390a25050565b600160009054906101000a900473ffffffffffffffffffffffffffffffffffffffff1673ffffffffffffffffffffffffffffffffffffffff163373ffffffffffffffffffffffffffffffffffffffff161415156120e957600080fd5b600160009054906101000a900473ffffffffffffffffffffffffffffffffffffffff1673ffffffffffffffffffffffffffffffffffffffff166000809054906101000a900473ffffffffffffffffffffffffffffffffffffffff1673ffffffffffffffffffffffffffffffffffffffff167f8be0079c531659141344cd1fd0a4f28419497f9722a3daafe3b4186f6b6457e060405160405180910390a3600160009054906101000a900473ffffffffffffffffffffffffffffffffffffffff166000806101000a81548173ffffffffffffffffffffffffffffffffffffffff021916908373ffffffffffffffffffffffffffffffffffffffff160217905550565b6000809054906101000a900473ffffffffffffffffffffffffffffffffffffffff1673ffffffffffffffffffffffffffffffffffffffff163373ffffffffffffffffffffffffffffffffffffffff1614151561224557600080fd5b601160009054906101000a900460ff1615151561226157600080fd5b6122696137f6565b151561227457600080fd5b60095461227f6122fc565b11806122af5750620f4240620186a0026122ac600c54620f424080604602026140a690919063ffffffff16565b11155b15156122ba57600080fd5b6001601160006101000a81548160ff0219169083151502179055506009546122e06122fc565b10156122fa5762ed4e006122f26122fc565b016010819055505b565b600042905090565b60025481565b6000809054906101000a900473ffffffffffffffffffffffffffffffffffffffff1681565b6000806000809054906101000a900473ffffffffffffffffffffffffffffffffffffffff1673ffffffffffffffffffffffffffffffffffffffff163373ffffffffffffffffffffffffffffffffffffffff1614151561238d57600080fd5b6123aa600e54620f424080600f02026140a690919063ffffffff16565b9150601160009054906101000a900460ff16156123f6576123de600c54620f424080604602026140a690919063ffffffff16565b90506123f38183613b5c90919063ffffffff16565b91505b81831115151561240557600080fd5b61245783600360008773ffffffffffffffffffffffffffffffffffffffff1673ffffffffffffffffffffffffffffffffffffffff16815260200190815260200160002054613b5c90919063ffffffff16565b600360008673ffffffffffffffffffffffffffffffffffffffff1673ffffffffffffffffffffffffffffffffffffffff168152602001908152602001600020819055506124af83600e54613b5c90919063ffffffff16565b600e819055506124ca83600254613b5c90919063ffffffff16565b6002819055508373ffffffffffffffffffffffffffffffffffffffff1660007fddf252ad1be2c89b69c2b068fc378daa952ba7f163c4a11628f55a4df523b3ef856040518082815260200191505060405180910390a38373ffffffffffffffffffffffffffffffffffffffff167f65575c8f2636547990c503962f3dc13c0d5eb236cc1e0ed9375adfd10c40906a84600360008873ffffffffffffffffffffffffffffffffffffffff1673ffffffffffffffffffffffffffffffffffffffff16815260200190815260200160002054600e5460405180848152602001838152602001828152602001935050505060405180910390a250505050565b6000600760009054906101000a900473ffffffffffffffffffffffffffffffffffffffff1673ffffffffffffffffffffffffffffffffffffffff163373ffffffffffffffffffffffffffffffffffffffff16148061266f57506000809054906101000a900473ffffffffffffffffffffffffffffffffffffffff1673ffffffffffffffffffffffffffffffffffffffff163373ffffffffffffffffffffffffffffffffffffffff16145b151561267a57600080fd5b600090505b815181101561276e57600160146000848481518110151561269c57fe5b9060200190602002015173ffffffffffffffffffffffffffffffffffffffff1673ffffffffffffffffffffffffffffffffffffffff16815260200190815260200160002060006101000a81548160ff021916908315150217905550818181518110151561270557fe5b9060200190602002015173ffffffffffffffffffffffffffffffffffffffff167ff93f9a76c1bf3444d22400a00cb9fe990e6abe9dbb333fda48859cfee864543d6001604051808215151515815260200191505060405180910390a2808060010191505061267f565b5050565b606481565b620f424061047e0281565b6000809054906101000a900473ffffffffffffffffffffffffffffffffffffffff1673ffffffffffffffffffffffffffffffffffffffff163373ffffffffffffffffffffffffffffffffffffffff161415156127dd57600080fd5b6127fa600d54620f424080600f02026140a690919063ffffffff16565b811115151561280857600080fd5b61285a81601960008573ffffffffffffffffffffffffffffffffffffffff1673ffffffffffffffffffffffffffffffffffffffff16815260200190815260200160002054613b5c90919063ffffffff16565b601960008473ffffffffffffffffffffffffffffffffffffffff1673ffffffffffffffffffffffffffffffffffffffff168152602001908152602001600020819055506128ef81600360008573ffffffffffffffffffffffffffffffffffffffff1673ffffffffffffffffffffffffffffffffffffffff16815260200190815260200160002054613b5c90919063ffffffff16565b600360008473ffffffffffffffffffffffffffffffffffffffff1673ffffffffffffffffffffffffffffffffffffffff1681526020019081526020016000208190555061294781600d54613b5c90919063ffffffff16565b600d8190555061296281600254613b5c90919063ffffffff16565b6002819055508173ffffffffffffffffffffffffffffffffffffffff1660007fddf252ad1be2c89b69c2b068fc378daa952ba7f163c4a11628f55a4df523b3ef836040518082815260200191505060405180910390a38173ffffffffffffffffffffffffffffffffffffffff167f6b37e537e38de33b5af7570a0a48b93ff45ea260e5d9498c3b80bcdf9b41845e82600360008673ffffffffffffffffffffffffffffffffffffffff1673ffffffffffffffffffffffffffffffffffffffff16815260200190815260200160002054600d5460405180848152602001838152602001828152602001935050505060405180910390a25050565b68b4aeaab10258f4000081565b6000809054906101000a900473ffffffffffffffffffffffffffffffffffffffff1673ffffffffffffffffffffffffffffffffffffffff163373ffffffffffffffffffffffffffffffffffffffff16141515612ac357600080fd5b80600660006101000a81548173ffffffffffffffffffffffffffffffffffffffff021916908373ffffffffffffffffffffffffffffffffffffffff1602179055507fbccb615726bb25bff9bcffa41eed7a8503660f94e19fcb9f2b3f03a47660609c81604051808273ffffffffffffffffffffffffffffffffffffffff1673ffffffffffffffffffffffffffffffffffffffff16815260200191505060405180910390a150565b6101f481565b6040805190810160405280600381526020017f475a52000000000000000000000000000000000000000000000000000000000081525081565b6000601054612bb66122fc565b1015612bff57601960008373ffffffffffffffffffffffffffffffffffffffff1673ffffffffffffffffffffffffffffffffffffffff1681526020019081526020016000205490505b601460008373ffffffffffffffffffffffffffffffffffffffff1673ffffffffffffffffffffffffffffffffffffffff16815260200190815260200160002060009054906101000a900460ff161515612ca757612ca4601760008473ffffffffffffffffffffffffffffffffffffffff1673ffffffffffffffffffffffffffffffffffffffff1681526020019081526020016000205482613b5c90919063ffffffff16565b90505b919050565b60146020528060005260406000206000915054906101000a900460ff1681565b6000809054906101000a900473ffffffffffffffffffffffffffffffffffffffff1673ffffffffffffffffffffffffffffffffffffffff163373ffffffffffffffffffffffffffffffffffffffff16141515612d2757600080fd5b600854612d326122fc565b101515612d3e57600080fd5b81612d476122fc565b108015612d5357508082105b1515612d5e57600080fd5b62ed4e00635a1ac8e00181101515612d7557600080fd5b8160088190555080600981905550612d9b62ed4e00600954613b5c90919063ffffffff16565b6010819055507f4ccf98aa8114b4ae056a1daeb92aa601d3408309611461a3d1c5d4f2ef57fde98282604051808381526020018281526020019250505060405180910390a15050565b60085481565b68b4aeaab10258f4000081565b6000809054906101000a900473ffffffffffffffffffffffffffffffffffffffff1673ffffffffffffffffffffffffffffffffffffffff163373ffffffffffffffffffffffffffffffffffffffff16141515612e5257600080fd5b601160009054906101000a900460ff161515612e6d57600080fd5b6001601160016101000a81548160ff021916908315150217905550565b6000601160019054906101000a900460ff161515612ea757600080fd5b8282905085859050141515612ebb57600080fd5b600090505b84849050811015612f9d57612ed433612ba9565b612f3a8484848181101515612ee557fe5b90506020020135600360003373ffffffffffffffffffffffffffffffffffffffff1673ffffffffffffffffffffffffffffffffffffffff168152602001908152602001600020546140a690919063ffffffff16565b10151515612f4757600080fd5b612f8f8585838181101515612f5857fe5b9050602002013573ffffffffffffffffffffffffffffffffffffffff168484848181101515612f8357fe5b90506020020135614443565b508080600101915050612ec0565b5050505050565b620f424061041a0281565b620f424061044c0281565b6000601160019054906101000a900460ff161515612fd757600080fd5b612fe033612ba9565b61303283600360003373ffffffffffffffffffffffffffffffffffffffff1673ffffffffffffffffffffffffffffffffffffffff168152602001908152602001600020546140a690919063ffffffff16565b1015151561303f57600080fd5b6130498383614443565b905092915050565b600760009054906101000a900473ffffffffffffffffffffffffffffffffffffffff1681565b620f424080600f020281565b6000809054906101000a900473ffffffffffffffffffffffffffffffffffffffff1673ffffffffffffffffffffffffffffffffffffffff163373ffffffffffffffffffffffffffffffffffffffff161415156130de57600080fd5b62ed4e00600954016130ee6122fc565b1115156130fa57600080fd5b600560009054906101000a900473ffffffffffffffffffffffffffffffffffffffff1673ffffffffffffffffffffffffffffffffffffffff166108fc3073ffffffffffffffffffffffffffffffffffffffff16319081150290604051600060405180830381858888f19350505050151561317357600080fd5b565b60105481565b6000806009546131896122fc565b11801561319b57506131996137f6565b155b15156131a657600080fd5b6000601560003373ffffffffffffffffffffffffffffffffffffffff1673ffffffffffffffffffffffffffffffffffffffff168152602001908152602001600020541115156131f457600080fd5b601560003373ffffffffffffffffffffffffffffffffffffffff1673ffffffffffffffffffffffffffffffffffffffff1681526020019081526020016000205491506000601560003373ffffffffffffffffffffffffffffffffffffffff1673ffffffffffffffffffffffffffffffffffffffff168152602001908152602001600020819055503373ffffffffffffffffffffffffffffffffffffffff166108fc839081150290604051600060405180830381858888f1935050505015156132bb57600080fd5b601760003373ffffffffffffffffffffffffffffffffffffffff1673ffffffffffffffffffffffffffffffffffffffff1681526020019081526020016000205490506000601760003373ffffffffffffffffffffffffffffffffffffffff1673ffffffffffffffffffffffffffffffffffffffff1681526020019081526020016000208190555061339481600360003373ffffffffffffffffffffffffffffffffffffffff1673ffffffffffffffffffffffffffffffffffffffff168152602001908152602001600020546140a690919063ffffffff16565b600360003373ffffffffffffffffffffffffffffffffffffffff1673ffffffffffffffffffffffffffffffffffffffff168152602001908152602001600020819055506133ec816002546140a690919063ffffffff16565b60028190555060003373ffffffffffffffffffffffffffffffffffffffff167fddf252ad1be2c89b69c2b068fc378daa952ba7f163c4a11628f55a4df523b3ef836040518082815260200191505060405180910390a35050565b620f4240806064020281565b620f4240620186a00281565b62278d0081565b600e5481565b600160009054906101000a900473ffffffffffffffffffffffffffffffffffffffff1681565b60196020528060005260406000206000915090505481565b60008060009054906101000a900473ffffffffffffffffffffffffffffffffffffffff1673ffffffffffffffffffffffffffffffffffffffff163373ffffffffffffffffffffffffffffffffffffffff1614151561350657600080fd5b8273ffffffffffffffffffffffffffffffffffffffff1663a9059cbb6000809054906101000a900473ffffffffffffffffffffffffffffffffffffffff16846000604051602001526040518363ffffffff167c0100000000000000000000000000000000000000000000000000000000028152600401808373ffffffffffffffffffffffffffffffffffffffff1673ffffffffffffffffffffffffffffffffffffffff16815260200182815260200192505050602060405180830381600087803b15156135d257600080fd5b6102c65a03f115156135e357600080fd5b50505060405180519050905092915050565b6000600460008473ffffffffffffffffffffffffffffffffffffffff1673ffffffffffffffffffffffffffffffffffffffff16815260200190815260200160002060008373ffffffffffffffffffffffffffffffffffffffff1673ffffffffffffffffffffffffffffffffffffffff16815260200190815260200160002054905092915050565b6000809054906101000a900473ffffffffffffffffffffffffffffffffffffffff1673ffffffffffffffffffffffffffffffffffffffff163373ffffffffffffffffffffffffffffffffffffffff161415156136d757600080fd5b600073ffffffffffffffffffffffffffffffffffffffff168173ffffffffffffffffffffffffffffffffffffffff161415151561371357600080fd5b80600560006101000a81548173ffffffffffffffffffffffffffffffffffffffff021916908373ffffffffffffffffffffffffffffffffffffffff1602179055507f4edbfac5b40fe46ac1af1fd222b224b38cfeeb9e21bd4fc6344526c245f7549b81604051808273ffffffffffffffffffffffffffffffffffffffff1673ffffffffffffffffffffffffffffffffffffffff16815260200191505060405180910390a150565b60156020528060005260406000206000915090505481565b6101f481565b600a5481565b60176020528060005260406000206000915090505481565b600068120d4da7b0bd140000600b54101515613815576001905061381a565b600090505b90565b600760009054906101000a900473ffffffffffffffffffffffffffffffffffffffff1673ffffffffffffffffffffffffffffffffffffffff163373ffffffffffffffffffffffffffffffffffffffff1614806138c557506000809054906101000a900473ffffffffffffffffffffffffffffffffffffffff1673ffffffffffffffffffffffffffffffffffffffff163373ffffffffffffffffffffffffffffffffffffffff16145b15156138d057600080fd5b6001601460008373ffffffffffffffffffffffffffffffffffffffff1673ffffffffffffffffffffffffffffffffffffffff16815260200190815260200160002060006101000a81548160ff0219169083151502179055508073ffffffffffffffffffffffffffffffffffffffff167ff93f9a76c1bf3444d22400a00cb9fe990e6abe9dbb333fda48859cfee864543d6001604051808215151515815260200191505060405180910390a250565b62ed4e0081565b60095481565b6000809054906101000a900473ffffffffffffffffffffffffffffffffffffffff1673ffffffffffffffffffffffffffffffffffffffff163373ffffffffffffffffffffffffffffffffffffffff161415156139e657600080fd5b6000809054906101000a900473ffffffffffffffffffffffffffffffffffffffff1673ffffffffffffffffffffffffffffffffffffffff168173ffffffffffffffffffffffffffffffffffffffff1614151515613a4257600080fd5b600073ffffffffffffffffffffffffffffffffffffffff168173ffffffffffffffffffffffffffffffffffffffff1614151515613a7e57600080fd5b8073ffffffffffffffffffffffffffffffffffffffff166000809054906101000a900473ffffffffffffffffffffffffffffffffffffffff1673ffffffffffffffffffffffffffffffffffffffff167ff4e75b79500ab730f8a026ed3cba6d55331bcb64c9e9f60c548e371356e5e3c060405160405180910390a380600160006101000a81548173ffffffffffffffffffffffffffffffffffffffff021916908373ffffffffffffffffffffffffffffffffffffffff16021790555050565b601160019054906101000a900460ff1681565b620f424080600f020281565b60008183019050828110151515613b6f57fe5b92915050565b600081830290506000831480613b955750818382811515613b9257fe5b04145b1515613b9d57fe5b92915050565b613bf583600360008773ffffffffffffffffffffffffffffffffffffffff1673ffffffffffffffffffffffffffffffffffffffff16815260200190815260200160002054613b5c90919063ffffffff16565b600360008673ffffffffffffffffffffffffffffffffffffffff1673ffffffffffffffffffffffffffffffffffffffff16815260200190815260200160002081905550613c4d83600c54613b5c90919063ffffffff16565b600c81905550613c6883600254613b5c90919063ffffffff16565b6002819055508015613dd957613c8983600f54613b5c90919063ffffffff16565b600f81905550613ca482600a54613b5c90919063ffffffff16565b600a81905550613cfc83601860008773ffffffffffffffffffffffffffffffffffffffff1673ffffffffffffffffffffffffffffffffffffffff16815260200190815260200160002054613b5c90919063ffffffff16565b601860008673ffffffffffffffffffffffffffffffffffffffff1673ffffffffffffffffffffffffffffffffffffffff16815260200190815260200160002081905550613d9182601660008773ffffffffffffffffffffffffffffffffffffffff1673ffffffffffffffffffffffffffffffffffffffff16815260200190815260200160002054613b5c90919063ffffffff16565b601660008673ffffffffffffffffffffffffffffffffffffffff1673ffffffffffffffffffffffffffffffffffffffff16815260200190815260200160002081905550613f1f565b613dee82600b54613b5c90919063ffffffff16565b600b81905550613e4683601760008773ffffffffffffffffffffffffffffffffffffffff1673ffffffffffffffffffffffffffffffffffffffff16815260200190815260200160002054613b5c90919063ffffffff16565b601760008673ffffffffffffffffffffffffffffffffffffffff1673ffffffffffffffffffffffffffffffffffffffff16815260200190815260200160002081905550613edb82601560008773ffffffffffffffffffffffffffffffffffffffff1673ffffffffffffffffffffffffffffffffffffffff16815260200190815260200160002054613b5c90919063ffffffff16565b601560008673ffffffffffffffffffffffffffffffffffffffff1673ffffffffffffffffffffffffffffffffffffffff168152602001908152602001600020819055505b8373ffffffffffffffffffffffffffffffffffffffff1660007fddf252ad1be2c89b69c2b068fc378daa952ba7f163c4a11628f55a4df523b3ef856040518082815260200191505060405180910390a38015158473ffffffffffffffffffffffffffffffffffffffff167fbc9aed8b9166a283221b7b897eb8b4d728c8c01e3339e310cdb2af2046129d1785600360008973ffffffffffffffffffffffffffffffffffffffff1673ffffffffffffffffffffffffffffffffffffffff16815260200190815260200160002054600c54876040518085815260200184815260200183815260200182815260200194505050505060405180910390a36140216137f6565b156140a057600560009054906101000a900473ffffffffffffffffffffffffffffffffffffffff1673ffffffffffffffffffffffffffffffffffffffff166108fc3073ffffffffffffffffffffffffffffffffffffffff16319081150290604051600060405180830381858888f19350505050151561409f57600080fd5b5b50505050565b60008282111515156140b457fe5b818303905092915050565b600081600360008673ffffffffffffffffffffffffffffffffffffffff1673ffffffffffffffffffffffffffffffffffffffff168152602001908152602001600020541015151561410f57600080fd5b81600460008673ffffffffffffffffffffffffffffffffffffffff1673ffffffffffffffffffffffffffffffffffffffff16815260200190815260200160002060003373ffffffffffffffffffffffffffffffffffffffff1673ffffffffffffffffffffffffffffffffffffffff168152602001908152602001600020541015151561419a57600080fd5b6141ec82600360008773ffffffffffffffffffffffffffffffffffffffff1673ffffffffffffffffffffffffffffffffffffffff168152602001908152602001600020546140a690919063ffffffff16565b600360008673ffffffffffffffffffffffffffffffffffffffff1673ffffffffffffffffffffffffffffffffffffffff168152602001908152602001600020819055506142be82600460008773ffffffffffffffffffffffffffffffffffffffff1673ffffffffffffffffffffffffffffffffffffffff16815260200190815260200160002060003373ffffffffffffffffffffffffffffffffffffffff1673ffffffffffffffffffffffffffffffffffffffff168152602001908152602001600020546140a690919063ffffffff16565b600460008673ffffffffffffffffffffffffffffffffffffffff1673ffffffffffffffffffffffffffffffffffffffff16815260200190815260200160002060003373ffffffffffffffffffffffffffffffffffffffff1673ffffffffffffffffffffffffffffffffffffffff1681526020019081526020016000208190555061439082600360008673ffffffffffffffffffffffffffffffffffffffff1673ffffffffffffffffffffffffffffffffffffffff16815260200190815260200160002054613b5c90919063ffffffff16565b600360008573ffffffffffffffffffffffffffffffffffffffff1673ffffffffffffffffffffffffffffffffffffffff168152602001908152602001600020819055508273ffffffffffffffffffffffffffffffffffffffff168473ffffffffffffffffffffffffffffffffffffffff167fddf252ad1be2c89b69c2b068fc378daa952ba7f163c4a11628f55a4df523b3ef846040518082815260200191505060405180910390a3600190509392505050565b600081600360003373ffffffffffffffffffffffffffffffffffffffff1673ffffffffffffffffffffffffffffffffffffffff168152602001908152602001600020541015151561449357600080fd5b6144e582600360003373ffffffffffffffffffffffffffffffffffffffff1673ffffffffffffffffffffffffffffffffffffffff168152602001908152602001600020546140a690919063ffffffff16565b600360003373ffffffffffffffffffffffffffffffffffffffff1673ffffffffffffffffffffffffffffffffffffffff1681526020019081526020016000208190555061457a82600360008673ffffffffffffffffffffffffffffffffffffffff1673ffffffffffffffffffffffffffffffffffffffff16815260200190815260200160002054613b5c90919063ffffffff16565b600360008573ffffffffffffffffffffffffffffffffffffffff1673ffffffffffffffffffffffffffffffffffffffff168152602001908152602001600020819055508273ffffffffffffffffffffffffffffffffffffffff163373ffffffffffffffffffffffffffffffffffffffff167fddf252ad1be2c89b69c2b068fc378daa952ba7f163c4a11628f55a4df523b3ef846040518082815260200191505060405180910390a360019050929150505600a165627a7a72305820d94349b992dbef0fc541dabc6feac594478b43d81fa5eee99739d366fbedd51f0029",
  "source": "pragma solidity ^0.4.11;\n\ncontract SafeMath {\n  function safeMul(uint a, uint b) internal returns (uint) {\n    uint c = a * b;\n    assert(a == 0 || c / a == b);\n    return c;\n  }\n\n  function safeSub(uint a, uint b) internal returns (uint) {\n    assert(b <= a);\n    return a - b;\n  }\n\n  function safeAdd(uint a, uint b) internal returns (uint) {\n    uint c = a + b;\n    assert(c>=a && c>=b);\n    return c;\n  }\n\n  function assert(bool assertion) internal {\n    if (!assertion) throw;\n  }\n}\n\ncontract Token {\n  /// @return total amount of tokens\n  function totalSupply() constant returns (uint256 supply) {}\n\n  /// @param _owner The address from which the balance will be retrieved\n  /// @return The balance\n  function balanceOf(address _owner) constant returns (uint256 balance) {}\n\n  /// @notice send `_value` token to `_to` from `msg.sender`\n  /// @param _to The address of the recipient\n  /// @param _value The amount of token to be transferred\n  /// @return Whether the transfer was successful or not\n  function transfer(address _to, uint256 _value) returns (bool success) {}\n\n  /// @notice send `_value` token to `_to` from `_from` on the condition it is approved by `_from`\n  /// @param _from The address of the sender\n  /// @param _to The address of the recipient\n  /// @param _value The amount of token to be transferred\n  /// @return Whether the transfer was successful or not\n  function transferFrom(address _from, address _to, uint256 _value) returns (bool success) {}\n\n  /// @notice `msg.sender` approves `_addr` to spend `_value` tokens\n  /// @param _spender The address of the account able to transfer the tokens\n  /// @param _value The amount of wei to be approved for transfer\n  /// @return Whether the approval was successful or not\n  function approve(address _spender, uint256 _value) returns (bool success) {}\n\n  /// @param _owner The address of the account owning tokens\n  /// @param _spender The address of the account able to transfer the tokens\n  /// @return Amount of remaining tokens allowed to spent\n  function allowance(address _owner, address _spender) constant returns (uint256 remaining) {}\n\n  event Transfer(address indexed _from, address indexed _to, uint256 _value);\n  event Approval(address indexed _owner, address indexed _spender, uint256 _value);\n\n  uint public decimals;\n  string public name;\n  string public symbol;\n}\n\ncontract StandardToken is Token {\n\n  function transfer(address _to, uint256 _value) returns (bool success) {\n    //Default assumes totalSupply can't be over max (2^256 - 1).\n    //If your token leaves out totalSupply and can issue more tokens as time goes on, you need to check if it doesn't wrap.\n    //Replace the if with this one instead.\n    if (balances[msg.sender] >= _value && balances[_to] + _value > balances[_to]) {\n    //if (balances[msg.sender] >= _value && _value > 0) {\n      balances[msg.sender] -= _value;\n      balances[_to] += _value;\n      Transfer(msg.sender, _to, _value);\n      return true;\n    } else { return false; }\n  }\n\n  function transferFrom(address _from, address _to, uint256 _value) returns (bool success) {\n    //same as above. Replace this line with the following if you want to protect against wrapping uints.\n    if (balances[_from] >= _value && allowed[_from][msg.sender] >= _value && balances[_to] + _value > balances[_to]) {\n    //if (balances[_from] >= _value && allowed[_from][msg.sender] >= _value && _value > 0) {\n      balances[_to] += _value;\n      balances[_from] -= _value;\n      allowed[_from][msg.sender] -= _value;\n      Transfer(_from, _to, _value);\n      return true;\n    } else { return false; }\n  }\n\n  function balanceOf(address _owner) constant returns (uint256 balance) {\n    return balances[_owner];\n  }\n\n  function approve(address _spender, uint256 _value) returns (bool success) {\n    allowed[msg.sender][_spender] = _value;\n    Approval(msg.sender, _spender, _value);\n    return true;\n  }\n\n  function allowance(address _owner, address _spender) constant returns (uint256 remaining) {\n    return allowed[_owner][_spender];\n  }\n\n  mapping(address => uint256) balances;\n\n  mapping (address => mapping (address => uint256)) allowed;\n\n  uint256 public totalSupply;\n}\n\ncontract GZR is StandardToken, SafeMath {\n    \n    address public minter;\n    address public hedgeContract;\n    string public name = \"GZR\";\n    string public symbol = \"GZR\";\n    uint public decimals = 18;\n\n   function GZR() {\n\tminter = msg.sender;\n\tbalances[msg.sender] = 100000000000000000000;  \n}\n    \n    function create(uint amount) {\n        if (msg.sender != minter) throw;\n        balances[msg.sender] = safeAdd(balances[msg.sender], amount);\n        totalSupply = safeAdd(totalSupply, amount);\n    }\n  \n    function destroy(uint amount) {\n        if (msg.sender != minter) throw;\n        if (balances[msg.sender] < amount) throw;\n        balances[msg.sender] = safeSub(balances[msg.sender], amount);\n        totalSupply = safeSub(totalSupply, amount);\n    }\n}\n\ncontract GZRItems {\n   \n   Item[] items;\n   mapping (uint256 => address) public itemIndexToOwner;\n\n   struct Item {\n        uint256 propertyA;\n        uint256 propertyB;\n        uint256 propertyC;\n    }\n    \n    function totalSupply() public returns (uint) {\n        return items.length - 1;\n    }\n    \n    function ownerOf(uint256 _tokenId) external returns (address) {\n        address owner = itemIndexToOwner[_tokenId];\n        require(owner != address(0));\n        return owner;\n    }\n    \n    function newItem(uint _propertyA, uint _propertyB, uint _propertyC) returns (uint) {\n        uint newId = items.length++;\n        Item I = items[newId];\n        I.propertyA = _propertyA;\n        I.propertyB = _propertyB;\n        I.propertyC = _propertyC;\n        itemIndexToOwner[newId] = tx.origin; \n        return newId;\n    }\n    \n    function getProperty(uint _id) public returns (uint256 propA, uint256 propB, uint256 propC) {\n        Item I = items[_id];\n        return (I.propertyA, I.propertyB, I.propertyC);\n    }\n}\n\ncontract GZRTokenToItemGeneration {\n    address public gzr;\n    address public gzrItems;\n    \n    uint randA = uint(block.blockhash(block.number-1))%10 + 1;\n    uint randB = uint(block.blockhash(block.number-1))%10 + 1;\n    uint randC = uint(block.blockhash(block.number-1))%10 + 1;\n    \n    function setUpAddresses(address _gzr, address _gzrItems) {\n        gzr = _gzr;\n        gzrItems = _gzrItems;\n    }\n    \n    function spendGZRToGetAnItem() {\n        GZR g = GZR(gzr);\n        GZRItems gI = GZRItems(gzrItems);\n        if(g.balanceOf(msg.sender) < 1) throw;\n        // remember to have user approve first\n        g.transferFrom(msg.sender, this, 1);\n        gI.newItem(randA, randB, randC);\n    }\n}",
  "compiler": {
    "name": "solc",
    "version": "0.4.18+commit.9cf6e910.Emscripten.clang"
  },
  "schemaVersion": "1.0.1",
  "updatedAt": "2018-01-27T01:31:35.695Z"
}